:020000040800F2
:100000006807002031020008731A00082B19000845
:10001000711A0008550800088D2200080000000031
:10002000000000000000000000000000DD210008CA
:100030005708000800000000751A0008DF210008BA
:100040004B0200084B0200084B0200084B0200085C
:100050004B0200084B0200084B0200084B0200084C
:100060004B0200084B0200084B0200084B0200083C
:100070004B0200084B0200084B0200084B0200082C
:100080004B0200084B0200084B0200084B0200081C
:100090004B0200084B0200084B0200084B0200080C
:1000A0004B0200084B0200084B0200084B020008FC
:1000B0004B0200084B0200084B0200084B020008EC
:1000C0004B0200084B0200084B0200084B020008DC
:1000D0004B0200084B0200084B0200084B020008CC
:1000E0004B0200084B0200084B0200084B020008BC
:1000F0004B0200084B0200084B0200084B020008AC
:100100004B0200084B0200084B0200084B0200089B
:100110004B0200084B0200084B0200084B0200088B
:100120004B0200084B0200084B0200084B0200087B
:100130004B0200084B0200084B0200084B0200086B
:100140004B0200084B0200084B0200084B0200085B
:100150004B0200084B0200084B0200084B0200084B
:100160004B0200084B0200084B0200084B0200083B
:100170004B0200084B0200084B0200080000000080
:100180004B0200084B02000800F002F800F041F8B2
:100190000AA090E8000C82448344AAF10107DA45E2
:1001A00001D100F036F8AFF2090EBAE80F0013F0F3
:1001B000010F18BFFB1A43F0010318473459000020
:1001C00054590000103A24BF78C878C1FAD85207B1
:1001D00024BF30C830C144BF04680C6070470000C1
:1001E0000023002400250026103A28BF78C1FBD840
:1001F000520728BF30C148BF0B607047642900F028
:10020000C380002070471FB503F046FB1FBD10B52B
:1002100010BD00F056FA1146FFF7F5FF02F050FD51
:1002200000F074FA03B4FFF7F2FF03BC00F078FAB1
:100230000948804709480047FEE7FEE7FEE7FEE77A
:10024000FEE7FEE7FEE7FEE7FEE7FEE704480549B6
:10025000054A064B704700007D220008890100080E
:100260006801002068070020680300206803002060
:1002700053EA020C00F069802DE9F04B4FF00006C4
:10028000002B1FBFB3FA83F503FA05F424FA05F631
:100290005E4012BF1643B2FA82F502FA05F4C5F1C8
:1002A00020051EBF22FA05FC44EA0C04203556EA5C
:1002B000044C4FEA144418BF641C4FF000084FF080
:1002C0000009904271EB030C39D3002919BFB1FA30
:1002D00081F701FA07F6B0FA80F700FA07F6C7F1DE
:1002E00020071EBF20FA07FC46EA0C062037B6FBA3
:1002F000F4FCA7EB0507103F07F01F0BCBF120061E
:100300000CFA0BFB2CFA06F644BFB3460026202F4E
:10031000A4BF5E464FF0000B5BEA060C08BF4FF02F
:10032000010B19EB0B09ABFB027C48EB0608C01B69
:1003300006FB02CC0BFB03CC71EB0C01C1E70B46B7
:10034000024641464846BDE8F08B13B54FF0000029
:100350004FF00001AFF30080BDE81C407047000083
:100360000FB41CB5074B06AA7B446946009005985C
:1003700000F085F90020694600F094F91CBC5DF896
:1003800014FB0000390300002DE9F041064600246B
:1003900010687529314616A510D0AFF300800028EB
:1003A00002DA404213A507E031688A0701D512A599
:1003B00002E0490704D511A5012401E0AFF3008054
:1003C00000210A2206F1240709E0B0FBF2FCB0FB91
:1003D000F2F302FB1C00303078541846491C002808
:1003E000F3D123462A463046BDE8F04100F0E8B894
:1003F000000000002D0000002B0000002000000085
:100400002DE9F0474FF0000A89460446C0F820A0C5
:100410002046E1688847002876D0252806D0D4E910
:1004200001219047206A401C2062F1E7E1682046E4
:1004300000258847C4F81CA006460027C4F818A069
:100440002A2E09D0304602F027FC38B304EB870887
:10045000303EC8F8186019E059F8041B204604EB38
:1004600087029161E1688847012F064618D1E0694B
:10047000002820DA25F020051DE0D8F8180000EB50
:10048000800006EB40003038C8F818002046E168CC
:100490008847064602F000FC0028EED1012F0AD062
:1004A0002E2E08D12046E16888477F1C0646022F81
:1004B00045F02005C4DBA069002803DA404245F07E
:1004C0000105A061E80701D025F01005B6B1A6F13D
:1004D0004100192802D8203645F400654A463146C5
:1004E000204625604D46FFF789FE58B1012806D009
:1004F000ED1D25F0070000F1080989E704E005F18A
:10050000040985E730468AE7206ABDE8F08740EABB
:100510000103024630B59B0710D14FF0013400E0D3
:1005200008C208C91D1B9D4315EAC41FF8D013F06B
:10053000FF0102F8011B0DD01B0AF8E711F8013B7F
:10054000002B02F8013B05D011F8013B002B02F80B
:10055000013BF3D130BD4FF0000200B51346944685
:100560009646203922BFA0E80C50A0E80C50B1F10B
:100570002001BFF4F7AF090728BFA0E80C5048BF1F
:100580000CC05DF804EB890028BF40F8042B08BFBD
:10059000704748BF20F8022B11F0804F18BF00F8B9
:1005A000012B704770477047704710B500F084F812
:1005B000006810BD10B5044600F07EF8046010BD60
:1005C0002DE9F0470D4699469246044600F124086D
:1005D0000168880604D5E06921F01001216000E07F
:1005E0000120A84201DD471B00E00027A1697A191C
:1005F00002EB0900081AA0612078C00602D4204648
:10060000AFF30080002608E0D4E901211AF80600C3
:100610009047206A401C761C20624E45F4DB20780F
:10062000C0060AD52046AFF3008006E0D4E90121D8
:1006300030209047206A401C2062381EA7F1010735
:10064000F4DC07E0D4E9012118F805009047206A9E
:10065000401C2062281EA5F10105F3DC2046AFF303
:1006600000802078000602D50220BDE8F087012036
:10067000FBE7000001694A1C02610878704700B579
:100680008FB0CDE901310021059105497944CDE9CB
:10069000031011466846FFF7B3FE0FB000BD00001F
:1006A000E5FFFFFF0A6802F8010B0A6070470000CF
:1006B00000487047080100200048704708010020EA
:1006C00070477546FFF7F4FFAE460500694653468E
:1006D00020F00700854618B020B5FFF7B7FDBDE84C
:1006E00020404FF000064FF000074FF000084FF099
:1006F000000B21F00701AC46ACE8C009ACE8C0092A
:10070000ACE8C009ACE8C0098D46704710B5044696
:10071000AFF300802046BDE81040FFF783BD000026
:1007200001491820ABBEFEE726000200464910B57D
:100730004A6822F440324A604A6843681A434A6071
:1007400001684A6822F480724A6001684A68036955
:1007500042EA03224A6001684A6822F040724A6015
:1007600001684A6883681A434A6001688A6822F40B
:1007700000628A6001688A68C3681A438A60816A75
:100780006FF07062D14201688A6822F070628A60FC
:1007900001688A680CD0836A1A438A6001688A6893
:1007A00022F040528A6001688A68C36A1A4301E0F5
:1007B00022F040528A6001688A6822F002028A6050
:1007C00001688A68037E42EA43028A6090F820103A
:1007D000002901684A680FD042F400624A6001684B
:1007E0004A6822F460424A6001684A68174C436ACA
:1007F00004EB43331A4301E022F400624A600168CB
:10080000CA6A22F47002CA620168CA6A838B104CF9
:1008100004EB03531A43CA6201688A6822F4007227
:100820008A6001688A6890F8303042EA43228A6020
:1008300001688A6822F480628A6001688A68406977
:1008400042EA8020886010BD0023014000E0FFFFE5
:100850000000F0FFFEE7704772B6FEE778B50024AF
:10086000009490F83C20012A19D0012280F83C2005
:100870000A6807230568092A13D9EE680A3A02EBC9
:10088000420293409E43EE600B788A680A3B03EB7A
:1008900043039A400368DD682A43DA6010E00220CF
:1008A00078BD2E6902EB420293409E432E610B7885
:1008B0008A6803EB43039A4003681D692A431A615F
:1008C0004A681F23072A13D205686E6B521E02EB7B
:1008D000820293409E436E630B790A885B1E92B23C
:1008E00003EB83039A4003685D6B2A435A6327E056
:1008F00005680D2A12D22E6BD21F02EB82029340A2
:100900009E432E630B790A88DB1F92B203EB8303AD
:100910009A4003681D6B2A431A6311E0EE6A0D3A90
:1009200002EB820293409E43EE620B790A880D3BF4
:1009300092B203EB83039A400368DD6A2A43DA62CA
:10094000164B0568144A9D4206D10D68122D03D13D
:10095000556845F48005556005689D4218D10B68BF
:10096000102B01D0112B13D1536843F400035360B3
:10097000096810290CD10A490A4A0968B1FBF2F149
:1009800001EB8101490000E0491E00910029FBD1E3
:1009900080F83C40002078BD002301400020014049
:1009A0003000002040420F0070B504004FF00005F9
:1009B00003D0206C002610B107E0012070BD204656
:1009C00000F01CF8666484F83C60206CC00610D40B
:1009D000206C20F4885040F0020020642046FFF78D
:1009E000A5FE6664206C20F0020040F00100206447
:1009F00000E0012584F83C60284670BD08B5006819
:100A00000649884208D10648016841F480710160B6
:100A1000006800F48070009008BD000000200140D4
:100A20004438024070B5044600F010F90546601CD9
:100A300002D004480078044400F008F9401BA042AA
:100A4000FAD370BD240000202DE9F84FDFF8BCA1D7
:100A5000002201250AF1040B03264FF00F090BF1C8
:100A6000040E00BF0B6805FA02F42340A34270D1C4
:100A70000F7907F00307012F01D0022F16D18768E5
:100A80004FEA420806FA08FC27EA0C07D1F80CC026
:100A90000CFA08FC4CEA070CC0F808C04768A743EA
:100AA0000C79C4F3001494403C4344600C79E44353
:100AB000A4070AD0C4684FEA420C06FA0CF7BC43FC
:100AC0008F6807FA0CF72743C7600C7904F003041A
:100AD000022C12D1D40800EB840CDCF8204057071C
:100AE000FF0E09FA07F824EA0804D1F8108008FA82
:100AF00007F848EA0408CCF8208004684FEA420C62
:100B000006FA0CF7BC430F7907F0030707FA0CF756
:100B1000274307604C6814F4403F70D03C4C276872
:100B200047F480472760246822F0030704F48044D8
:100B30000094384C07EB040CDCF8084897074FEAA0
:100B4000177809FA08F7BC43334FB84202D100279F
:100B500024E054E0314FB84201D101271EE0304F6C
:100B6000B84201D1022719E02E4FB84201D1032724
:100B700014E02D4FB84201D104270FE02B4FB842AB
:100B800001D105270AE02A4FB84201D1062705E026
:100B9000284FB84201D1072700E0082707FA08F7D5
:100BA0002743CCF80878DAF800405746D1F804C05B
:100BB0009C435FEACC3C00D51C433C60DBF8004022
:100BC0005F46D1F804C09C435FEA8C3C00D51C43CF
:100BD0003C60DEF800407746D1F804C09C435FEAF1
:100BE000CC2C00D51C433C60084F0C373C68D1F836
:100BF00004C09C435FEA8C2C00D51C433C60521C13
:100C0000102AFFF42FAFBDE8F88F0000003C014030
:100C1000443802400030014000000240000402401D
:100C200000080240000C0240001002400014024084
:100C300000180240001C02400069084000D001205A
:100C400070470AB1816170470904FBE70148806879
:100C50007047000024000020024881680278114497
:100C600081607047240000200B4810B5016841F4F2
:100C700000710160016841F480610160016841F424
:100C800080710160032000F061F80F2000F006F889
:100C900000F024F8002010BD003C024070B50D4D5E
:100CA00004464FF47A712878B1FBF0F00A490968DC
:100CB000B1FBF0F000F025FE48B9102C07D200225D
:100CC0002146501E00F022F800206C6070BD01200B
:100CD00070BD000024000020300000200A4808B544
:100CE000016841F480410160006800F48040009098
:100CF0000548001F016841F080510160006800F064
:100D00008050009008BD000044380240F0B40E4B03
:100D10001B680C46C3F30223C3F10705042D00D959
:100D20000425191D072901D2002300E0DB1E01263E
:100D300006FA05F1491E214099409E40761E164054
:100D40003143F0BC01F0BBBA0CED00E0064900F005
:100D5000070208684FF6FF03184040EA0220034AE2
:100D600010430860704700000CED00E00000FA0539
:100D70002DE9F843054600684FF00109C1074FF01F
:100D8000000601D1400727D5DFF80C81C8F868605C
:100D9000FFF75CFF0746414C05E000BFFFF756FF39
:100DA000C01B022857D820680001F7D46868810169
:100DB000287A41EA0070394984310860C8F868909F
:100DC000FFF744FF074604E0FFF740FFC01B02287F
:100DD00041D820680001F7D52878800752D52F48E0
:100DE0004030016841F08051016000682C4C00F0F7
:100DF00080500090206840F480702060FFF726FF4C
:100E0000074604E0FFF722FFC01B022823D8206812
:100E1000C005F7D5214C7034206810F4407020D004
:100E2000A98901F4407181421BD020681D4920F43A
:100E30004070C1F800900E6020602068C00710D09C
:100E4000FFF704FF064641F2883707E0FFF7FEFE92
:100E5000801BB84202D90320BDE8F88320688007D0
:100E6000F4D5E9680D48C1F301220830032A0BD0FC
:100E7000016821F4F81101602068A989C1F30B0110
:100E8000084320600020E7E70268074B22F4F812CD
:100E900019400A430260EFE7000047420038024071
:100EA00000700040400E4742FFFCFF0F2DE9F04765
:100EB0000E46050065D0DFF81481D8F80000F7B2BF
:100EC00000F00700B04207D288F80070D8F80000A0
:100ED00000F00700B04254D128683D4C810712D57C
:100EE000400703D5206840F4E050206028780007D0
:100EF00003D5206840F4604020602068A96820F095
:100F0000F000084320602878C0072DD03049686879
:100F10000839012812D0022813D0032811D00968FB
:100F2000890700292DDA216821F00301014321609E
:100F3000FFF78CFE814641F2883A0EE0096889038A
:100F4000EFE709688901ECE7FFF780FEA0EB0901F4
:100F5000514502D90320BDE8F0872068696800F098
:100F60000C00B0EB810FEFD1D8F80010404601F033
:100F70000701B14207D90770006800F00700B042CE
:100F800001D00120E7E72878400705D52068E96807
:100F900020F4E050084320602878000706D5206838
:100FA000296920F4604040EAC100206000F018F890
:100FB0002168084AC1F30311515CC8400649086022
:100FC00006480068FFF76AFE0020C4E7003C0240C4
:100FD00008380240BE5900083000002028000020D8
:100FE000154810B5006810F00C02144813D04110D9
:100FF000042A0FD0082A0ED10F4C241F2268236820
:1010000002F03F025B0207D52068C0F38810A0FB06
:10101000010106E0084610BD2168C1F38811A1FB5B
:1010200000010023FFF724F92168C1F30141491CA5
:101030004900B0FBF1F010BD083802400024F40074
:101040002DE9F84F04006ED02078DFF84C93C007EC
:10105000A9F104054AD009F104000168C1F3810136
:10106000012908D00068C0F3810002280AD1D9F80C
:101070000000400206D52868800337D56068002844
:10108000E1D033E06068B0F5803F10D0B0F5A02F1C
:10109000286810D020F480302860286820F4802050
:1010A00028606068A8B1FFF7D1FD06460DE028680A
:1010B00040F48030F4E740F480202860F7E700BF78
:1010C000FFF7C4FD801B642873D828688003F7D518
:1010D0000CE0FFF7BBFD064605E000BFFFF7B6FDDD
:1010E000801B6428F0D828688003F7D42078DFF8C4
:1010F000AC8280074FF0000A3ED5A748001D01686A
:1011000011F00C0F08D00068C0F3810002280BD149
:10111000D9F80000400207D42868800716D5E06897
:10112000012800D112E033E1E068B8B10120C8F82D
:101130000000FFF78BFD064605E000BFFFF786FDC8
:10114000801B0228C0D828688007F7D52868216945
:1011500020F0F80040EAC10028600DE0C8F800A0C7
:10116000FFF774FD064604E0FFF770FD801B0228C0
:101170001FD828688007F7D42078000722D5864F2B
:1011800087486169703771B101210160FFF75EFD29
:10119000064604E0FFF75AFD801B022809D838688C
:1011A0008007F7D50EE0C0F800A0FFF74FFD064618
:1011B00005E082E0FFF74AFD801B02287DD83868F1
:1011C0008007F7D42078400768D5DFF8CCB1002736
:1011D0000BF13C0BDBF80000C0000BD4DBF8001077
:1011E00041F08051CBF80010DBF80000012700F03F
:1011F000805000906B4E3068C00510D4306840F4C9
:1012000080703060FFF722FD009005E0FFF71EFDC3
:101210000099401A022850D83068C005F6D55E4EB5
:10122000A0686C3601280FD00528306810D020F057
:1012300001003060306820F004003060A068B8B170
:10124000FFF704FD00900FE0306840F00100F4E784
:1012500040F004003060F7E7FFF7F8FC0099411A0E
:1012600041F28830814266D830688007F4D50EE0BC
:10127000FFF7ECFC009007E0FFF7E8FC0099411A4B
:1012800041F28830814256D830688007F4D42FB1BB
:10129000DBF8001021F08051CBF80010A069C8B332
:1012A0003D49091D0968C1F3810102294AD002287C
:1012B000504607D0C8F8600000E03CE0FFF7C6FCED
:1012C00004463BE04746C8F86000FFF7BFFC06460F
:1012D00005E000BFFFF7BAFC801B02282BD8286866
:1012E0008001F7D4D4E907010843A16A2E4A4908CE
:1012F00002EB0141626A41EA8211084394F82C1022
:1013000040EA0161C9F8001001203866FFF79EFC31
:10131000044606E03EE000BFFFF798FC001B0228F1
:1013200009D828688001F7D534E000BFFFF78EFCAC
:10133000001B022802D90320BDE8F88F286880012D
:10134000F4D427E00128F7D0D9F80000E26900F4CE
:10135000800191421CD1226A00F03F01914217D1D5
:1013600047F6C071626A0140B1EB821F10D1A26AD8
:101370004FF0FF3300F4403103EB5202B1EB024F68
:1013800006D194F82C1000F07060B0EB016F01D022
:101390000120D1E70020CFE7043802400000474297
:1013A000800E4742007000400000FFFF10B500684B
:1013B0000B4641680D480140080CD870C1F3042465
:1013C0005C7001F03F049C70C1F34231197052B956
:1013D00000F051FBD870587800F04DFB58709878A9
:1013E00000F049FB9870002010BD00003FFFFF0097
:1013F00010B50B460168896A596001680969C1F333
:101400000E019960006801680E480140C1F3054073
:101410001870C1F306245C7001F07F049C704024B6
:1014200004EA1141D97052B900F025FB18705878C0
:1014300000F021FB5870987800F01DFB9870002098
:1014400010BD00007F7F7F0070B5040002D0607F78
:1014500010B106E0012070BD00202077204600F08A
:1014600049F8022060772168CA2048622168532029
:101470004862204600F014FBFF25042618BB2068B4
:1014800081681B4A11408160216888686268104346
:10149000D4E904231A43104388602168E068086196
:1014A00020680169228941EA024101612068C1681E
:1014B00021F08001C16020688068800607D4204642
:1014C00000F0AAF818B1206845626677C2E7206884
:1014D000016C21F4802101642068016CA269114330
:1014E00001642068456201206077002070BD000023
:1014F000BFFF8FFF1FB50021009101910291039161
:101500000068084988420CD102200090C001039075
:101510006846FFF72DFC08B1FFF79EF9024901204C
:1015200008601FBD002800403C0E47422DE9F047EF
:101530000446007F0D46012827D04FF0010A84F8A9
:101540001CA0022060772068002680684FEA406077
:10155000F2B1002800DBEE70A878297840EA014754
:101560006878E978000240EA014007432168CA2010
:101570004862216853204862204600F091FA4FF0FB
:10158000FF084FF00409A0BB16E00220BDE8F08779
:10159000002800DBEE70287800F076FA0204687804
:1015A00000F072FA42EA0022A87800F06DFA0243D5
:1015B000E87842EA0047D9E7164807402068076004
:1015C0002068816821F480218160D5E90301084306
:1015D00021688A68104388602068C16821F0800112
:1015E000C1602068806880060BD4204600F014F8A3
:1015F00038B12168C1F8248084F81D902677012035
:10160000C4E72168C1F8248084F81DA02677002053
:10161000BCE700007F7F7F0070B504460068C168AA
:1016200021F0A001C160FFF711FB05464FF47A7667
:1016300007E000BFFFF70AFB401BB04201D90320BF
:1016400070BD2068C0688006F4D5002070BD70B5FC
:10165000040009D0606A002540B125616561A5627A
:1016600094F8510040B10CE0012070BD6068B0F505
:10167000827FF4D0E561F2E784F85050204600F014
:1016800045F8022084F851002068016821F04001EB
:101690000160A088218900F4827001F404410843AC
:1016A000A18901F400610843217C01F00201084393
:1016B000217D01F001010843218B01F400710843F1
:1016C000217F01F03801084394F8201001F08001D7
:1016D0000843218D01F40051084321680860A06986
:1016E000042101EA104094F8241001F0100108438D
:1016F000216848602068C16921F40061C1616565A5
:10170000012084F85100002070BD0000F0B587B0C2
:10171000044614216846FEF71EFF1C4920688842D3
:1017200032D11B480024016841F480410160006807
:1017300000F48040059016481038016841F004011B
:101740000160016801F004010591016841F00201A6
:1017500001600068022500F0020005900C20CDE930
:10176000000502AA0326052782E8D0006946094839
:10177000FFF76AF96802CDE9000502AA694682E826
:10178000D0000548FFF760F907B0F0BD0038004011
:101790004038024000080240000402402DE9F84FA2
:1017A000044690F8500000271D4616468946012839
:1017B0000DD04FF0010B84F850B0FFF747FA804688
:1017C00094F85100BA46012804D0022793E0022081
:1017D000BDE8F88FB9F1000F73D0002E71D003204F
:1017E00084F85100C4F854A0C4F83090A686E68668
:1017F000C4F838A0A4F83CA0A4F83EA0C4F844A0C3
:10180000C4F840A0A068B0F5004F09D12068016875
:1018100021F0400101602068016841F480410160CD
:1018200020680168490603D4016841F04001016065
:10183000E068B0F5006F606803D030B3012E24D0AB
:1018400041E008B1012E1CD1206B21680088C860DE
:1018500006E020688168890709D5216B0988C16085
:10186000206B801C2063E08E401EE08609E0FFF7BD
:10187000EDF9A0EB0800A84202D3681C01D031E0CA
:101880007DB3E08E0028E4D120E0206B2168007851
:10189000087306E020688168890709D5216B0978FB
:1018A0000173206B401C2063E08E401EE0860AE03E
:1018B000FFF7CCF9A0EB0800A84203D3681C02D0C4
:1018C00010E017E06DB1E08E0028E3D142462946D2
:1018D000204600F003F908B120206065A06818B127
:1018E00006E0FFE7032706E02068C16880680090F3
:1018F000606D00B1012784F851B084F850A03846DB
:1019000066E710B5401EB0F1807F01D3012010BD05
:101910004FF0E02460610F21601700F0D0FC002040
:10192000A06107202061002010BDFEE77FB50024E4
:1019300015480094019402941249039401604FF4F5
:101940004031C0E901140461047680F820400F4959
:10195000C0E90A140125C561C46080F830404561C2
:10196000FFF722F808B172B6FEE71020CDE90005B6
:10197000694602940448FEF771FF002801D072B650
:10198000FEE77FBD00200140A00000200100000F05
:1019900070B586B014216846FEF7DDFD22480024AC
:1019A000016841F004010160016801F00401059142
:1019B000016841F080010160016801F0800105913A
:1019C000016841F010010160016801F0100105910A
:1019D000016841F002010160016801F00201059116
:1019E000016841F0010101600068104E00F0010043
:1019F0004FF470650590002229463046FFF721F923
:101A00000220CDE902400095012569460195304646
:101A1000FFF71AF818208DE8310069463046FFF7C5
:101A200013F806B070BD00003038024000100240CC
:101A30000E4810B50C4901604FF4827141600021DD
:101A40008160C1604FF400720161C0E90512C1619B
:101A50000162416281620A21C162FFF7F8FD00283C
:101A600001D072B6FEE710BD0038004048000020EB
:101A7000FEE7FEE77047010901EB810100F00F006E
:101A800000EB4100C0B27047002102E00A38C0B24A
:101A9000491C0A28FAD2090740EA11607047000081
:101AA00070B504460068C168490614D44FF0FF3190
:101AB000C160FFF7CBF805464FF47A7607E000BF28
:101AC000FFF7C4F8401BB04201D9032070BD206865
:101AD000C0684006F4D5002070BD000038B504464B
:101AE0001248134B0068B0FBF3F04FF47A7358437D
:101AF00000906068B0F5827F0DD10B460092002205
:101B00008021204600F016F870B1606D40F0200092
:101B10006065032038BD009830B1401E00902068F9
:101B20008068C0430006F6D5002038BD3000002094
:101B300000366E012DE9F8431E469146884604465C
:101B4000089DFFF783F8401B351AFFF77FF807461B
:101B500025480068C0F3CB30684338E0701C37D0AC
:101B6000FFF774F8C01BA84203D215B1009860B308
:101B70002CE02068416821F0E00141606068B0F528
:101B8000827F0BD1A068B0F5004F02D0B0F5806F16
:101B900004D12068016821F040010160A06AB0F51D
:101BA000005F09D12068016821F4005101602068BC
:101BB000016841F400510160012084F851000020C7
:101BC00084F850000320BDE8F8830025401E0090F3
:101BD0002068816838EA010004D000214945BDD160
:101BE0000020F0E70121F9E7300000202DE9FF4F48
:101BF0000746C2F101000FFA80F850001446404237
:101C000083B00FFA80FA0E4638194FF0010900250B
:101C100089B280B2069A00F0C1F8381BB1B280B226
:101C2000069A00F0BBF8301B81B2B8B2069A00F0F9
:101C3000B5F8301981B2B8B258E000BFB8F1000F62
:101C400009DB0AF102000FFA80FA641E08EB0A00B1
:101C500024B20FFA80F809F102000FFA80F96D1C26
:101C600008EB09002DB20FFA80F87819019006EB05
:101C7000040B1FFA8BF180B2069A00F08FF8781BE4
:101C800000901FFA8BF180B2069A00F087F8009856
:101C9000A6EB040B1FFA8BF180B2069A00F07EF8D7
:101CA00001981FFA8BF180B2069A00F077F8381984
:101CB000019006EB050B1FFA8BF180B2069A00F03B
:101CC0006DF8381B00901FFA8BF180B2069A00F075
:101CD00065F80098A6EB050B1FFA8BF180B2069A07
:101CE00000F05CF801981FFA8BF180B2069A00F0C0
:101CF00055F8A542A2DB07B0BDE8F08F2DE9F05FF3
:101D00000C4606461546191BA2EB060000D54942B3
:101D1000002800DA4042814207DD304626461D4653
:101D20004FF001080446134601E04FF00008AE42B0
:101D300005DD30462E46054620461C460346A81BB8
:101D40000FFA80F9181B00D540420FFA80FB09EB0F
:101D5000D97047109C4201DA012001E04FF0FF30BA
:101D6000824617E0B8F1000F02D0B1B2A0B201E094
:101D7000A1B2B0B20A9A00F011F8A7EB0B0007B2BB
:101D8000002F05DA04EB0A0004B207EB090007B2E2
:101D9000761C36B2AE42E5DDBDE8F09F2DE9F84392
:101DA000054616480C461646B0F906108D4222DA52
:101DB000B0F9040084421EDADFF844804FF48077E3
:101DC000002239464046FEF73CFF601CC3B2681C47
:101DD000C2B2E1B2E8B200F013F9300A8DF80000A7
:101DE0008DF801600221684600F0E2F901223946CF
:101DF0004046FEF726FFBDE8F88300000000002003
:101E0000001002402DE9FE4FDFF874B014460E4674
:101E100005464FF4807A9846002251465846FEF710
:101E200010FFDFF8609008F0FF071EE0B9F90630F8
:101E3000791999420BDBC8F307218B199EB2B9F9C6
:101E4000040000253144814212DA202A0CD0DDE959
:101E50000D01CDE901010C9800904346314628461A
:101E600000F04AF9781985B2641C2278002ADDD185
:101E700003B051465846BDE8F04F0122FEF7E1BEDF
:101E800000100240000000202DE9F04110F8015B35
:101E9000044617E0207800F077F96078A41C00F081
:101EA000200730F0200604D03146204600F080F9AB
:101EB00034443FB114F8010BFF2801D14FF4FA70FC
:101EC000FEF7B0FD6D1EEDB2E4D2BDE8F08100007A
:101ED0002DE9F84F074629480E46DDF82880B0F96D
:101EE00006101C4615468F4246DAB0F904008642B9
:101EF00042DA7A19521E8A4201DBC91B8DB23119AE
:101F0000491E814201DB801B84B2DFF874904FF4DC
:101F1000807A002251464846FEF793FE3019401E53
:101F2000C3B27819401EC2B2F1B2F8B200F068F83C
:101F30004FEA18208DF8000001228DF801809102EF
:101F40004846FEF77EFE26464FF0FF370DE02C4652
:101F500007E03B46022269460A48FFF71FFC641E61
:101F6000A4B2002CF5D1761EB6B2002EEFD101221C
:101F700051464846FEF765FEBDE8F88F0000002098
:101F8000001002404800002008B5009004488188F5
:101F9000C0888BB282B200210846FFF799FF08BDC6
:101FA0000000002070B5144D4FF4807400222146CB
:101FB0002846FEF746FE6600002231462846FEF718
:101FC00040FE1420FEF72EFD012231462846FEF782
:101FD00038FE0A48FFF758FF08483B30FFF754FF28
:101FE00006484830FFF750FF21462846BDE87040BC
:101FF0000122FEF726BE000000100240A2380008B1
:10200000F8B504461D4616460F462A2000F0BCF8D7
:102010002146104C00200090607801448DF801109A
:1020200030448DF803000421684600F0C1F82B20ED
:1020300000F0AAF8A07839188DF8011028448DF81E
:1020400003000421684600F0B3F82C2000F09CF84F
:10205000F8BD0000000000202DE9F843244C00F0FA
:102060000300DFF8909020704FF480780022414602
:102070004846FEF7E6FD362000F086F82178002578
:10208000802604F10800A02731B101290CD00229D3
:1020900015D003290CD11CE001784278C078114397
:1020A00001438DF800100DE0417813E06570A570D4
:1020B00041464846BDE8F8430122FEF7C2BDC0785C
:1020C0008DF800000121684600F072F8E680A780D4
:1020D000ECE701788278C078114301438DF8001055
:1020E0000121684600F064F8E780A680DEE7000082
:1020F00000000020001002400FB42DE9FF5F4A1ECF
:10210000C3F307263244D4B2DFB2421EDDE913A97D
:102110003A44D2B2C9B2C0B22346FFF771FF0025DC
:102120002CE01098203810FB06501299002409F07A
:10213000FF0B31F810804FEA1A2002900AF0FF00DE
:1021400001904FEA1920009015E000BF08FA04F052
:10215000000406D502988DF80C0001988DF80D004A
:1021600004E000988DF80C008DF80DB0022103A852
:1021700000F01EF8641CA742E8D86D1CAE42D0D80F
:10218000BDE8FF1F5DF814FB01B500224FF480612C
:102190000548FEF756FD4FF0FF330122694603481C
:1021A000FFF7FCFA08BD00000010024048000020C4
:1021B00070B50D460446012291020648FEF741FD26
:1021C000AAB22146BDE870404FF0FF330248FFF746
:1021D000E5BA000000100240480000207047FEF7FA
:1021E0003BBD000030B593B030216846FEF7B3F92F
:1021F00014210CA8FEF7AFF91E480025016841F034
:1022000080510160006800F0805011901A48016808
:1022100041F4804101600068022400F48040119084
:10222000052000904FF4803001900120029080053D
:10223000CDE9064008AA0420A02182E813000B90F3
:102240006846FEF7FDFE08B172B6FEE70CA90F2046
:1022500081E831004FF4A0500F904FF4805010905F
:1022600005210CA8FEF722FE002801D072B6FEE779
:1022700013B030BD40380240007000400248016891
:1022800041F470010160704788ED00E0FEE703B49F
:1022900001984100009850EAC12018BF04204A0D5F
:1022A00018BF40F0010040F2FF72B2EB515F08BF6F
:1022B00040F00200012808BF052002B0704709075E
:1022C000090E002804DB00F1E02080F800147047BC
:1022D00000F00F0000F1E02080F8141D70470000AE
:1022E00010B52F499FED2C1B2DED020B84B00598E6
:1022F00020F000408842D8BF9DED040B2DDD294918
:10230000884209D1049840B94FF00100FEF752F914
:1023100000F0A2FC06B010BD05DB9DED040B00F043
:102320008FFC06B010BD68469DED040B00F0A0F8D0
:1023300010F0030004BF9DED021B9DED000B0CD0BF
:1023400001280ED09DED021B9DED000B022817D039
:10235000012000F0DDFB06B010BD00F0A5FA06B0CC
:1023600010BD9DED021B9DED000B012000F0D0FB88
:1023700051EC100B00F036FE06B041EC100B10BD16
:1023800000F092FA51EC100B00F02CFE06B041EC7C
:10239000100B10BD00000000000000000000000055
:1023A000FB21E93F0000F07F10B52F499FED2C1B6A
:1023B0002DED020B84B0059820F000408842DCBF70
:1023C00000209DED040B32DD2849884209D1049894
:1023D00040B94FF00100FEF7EDF800F03DFC06B00B
:1023E00010BD05DB9DED040B00F02AFC06B010BD0E
:1023F00068469DED040B00F03BF810F0030011D08F
:10240000012818D09DED021B9DED000B02281AD06B
:1024100000F04AFA51EC100B00F0E4FD06B041EC7C
:10242000100B10BD9DED021B9DED000B012000F077
:102430006FFB06B010BD9DED021B9DED000B00F083
:1024400033FA06B010BD012000F062FB51EC100B16
:1024500000F0C8FD06B041EC100B10BD00000000FC
:102460000000000000000000FB21E93F0000F07FB9
:102470002DE9F14F04462DED020B2DED088B8AB0AE
:102480009FEDE70B80ED020B139EE74826F0004519
:1024900085420ADC9DED120B002084ED000B0AB092
:1024A000BDEC088B03B0BDE8F08FE0489FEDE0ABDA
:1024B0009FEDE1BBA84247DDE14F9FEDE39B9FED20
:1024C000E48B9DED120B53EC1A2B51EC100B002EEC
:1024D0001CDD01F0F7F841EC100BBD4208D053ECC5
:1024E0001B2B51EC100B01F0EDF8C4E900010BE0DF
:1024F00053EC192B51EC100B01F0E4F853EC182BB2
:1025000001F0E0F8C4E900010120C8E700F076FD21
:1025100041EC100BBD4208D053EC1B2B51EC100BBF
:1025200000F06CFDC4E900010BE053EC192B51ECF9
:10253000100B00F063FD53EC182B00F05FFDC4E9B5
:1025400000014FF0FF30AAE7C348A84279DB9DEDB8
:10255000120B51EC100B00F0A6FB41EC180B9FED99
:10256000C00B53EC102B00F0A3FF9FEDBF1B53ECEF
:10257000112B00F043FD00F041FF074600F06DFF16
:1025800041EC190B53EC1A2B00F092FF53EC182B73
:1025900001F08CF841EC180B53EC1B2B51EC190B90
:1025A00000F086FFDFF8C8A241EC100B4FEA155887
:1025B0000125FA4453EC102B51EC180B01F082F872
:1025C000032DC4E900013DD0C1F30A5005EB4511CC
:1025D000A8EB00001139814234DA0AEB051BB0EE9A
:1025E00048AA9BED000BF0EE68AA53EC102B51ECBF
:1025F000190B00F05DFF41EC1B0B51EC1A0B53EC77
:102600001B2B01F05FF841EC180B51EC1A0B53EC4B
:10261000182B01F057F853EC1B2B01F053F89BEDEE
:10262000020B41EC1A0B53EC102B51EC190B00F080
:102630003FFF53EC1A2B01F045F841EC100B6D1CD9
:10264000B8E70EE0002EA8BF3846BFF628AF94EDDD
:10265000000B51EC100B00F0C5FCC4E900017842FE
:102660001DE7C6F3130040F4801EC6F30A50A0F223
:10267000F530471100F01F05C5F12000DDF848B026
:1026800008900020069007900520EC467949002D1F
:1026900007EB0002794408BF51F8221009D051F825
:1026A000223001EB8201AB404A68089922FA01F11D
:1026B0001943A1FB0E26A1FB0B131A449A4234BF07
:1026C0000123002303EB06080CEB8003D3E901A6EA
:1026D0000E448E4234BF0121002192448A4411B13C
:1026E000924502D903E0924501D2012100E0002188
:1026F000C3E901A641444CF82010011EA0F10100DD
:10270000C4DC029800F10050850F0298DDE90367F0
:102710008000DDF8148000F0A0FE41EC1A0B30467A
:1027200000F0B2FE9FED541B53EC112B00F0C0FEE5
:1027300041EC1B0B384600F0A7FE9FED511B53ECFC
:10274000112B00F0B5FE41EC180B404600F09CFE4A
:102750009FED4D1B53EC112B00F0AAFE41EC190B21
:1027600051EC180B53EC192B00F048FC53EC1B2BCD
:1027700000F044FC53EC1A2B00F040FCCDE90801BA
:10278000002008909DED080B53EC1A2B51EC100B18
:1027900000F098FF53EC1B2B00F094FF53EC182B28
:1027A00000F090FF53EC192B00F080FF9FED381BD9
:1027B00053EC112B00F07CFE9FED370B41EC180B16
:1027C00053EC102B9DED080B51EC100B00F070FE3C
:1027D00053EC182B00F012FC9FED310B41EC180B61
:1027E00053EC102B9DED080B51EC100B00F060FE2C
:1027F00053EC182B00F002FC41EC100B139810F076
:10280000004F06D06D4251EC100B00F0EBFB41EC99
:10281000100B284684ED000B41E60000000000008C
:102820000000000000000000FB21E93F7CD90240CD
:1028300000004054FB21F93F3163621A61B4D03D7E
:10284000FB21F93F000000000000601A61B4D03D98
:102850007370032E8A19A33BFB213941000000004D
:1028600083C8C96D305FE43F000000000000E03F16
:102870004A34000098330000000000000000103EC1
:10288000000000000000103C000000000000103AB2
:10289000182D4454FB21F93D3326A611460B113C5B
:1028A00000000054FB21F93D10B52DED040B2DED7A
:1028B000088B82B0B0EE419AF0EE619A0B9820F04E
:1028C00000449FED4BABB4F1795F11DA9DED0A0B3B
:1028D00051EC100B00F092FD002801BFB0EE4A0A47
:1028E000F0EE6A0A02B0BDEC088B04BF04B010BD64
:1028F0009DED0A0B53EC102B51EC100B00F0D8FDA2
:1029000041EC180B3C480621B0EE480AF0EE680A8C
:10291000784400F081F853EC182B51EC100B00F0C8
:10292000C7FD9DED0A0B41EC1B0B53EC192B51EC31
:10293000100B00F0BDFD41EC190B53EC1B2B51ECBF
:10294000180B00F0B5FD53EC192B00F0BBFE9FED0A
:102950002C0B41EC190B53EC102B51EC180B00F025
:10296000A7FD41EC100B2848844210DA53EC192BD8
:1029700051EC100B00F0A6FE53EC1A2B00F096FE63
:1029800041EC100B02B0BDEC088B04B010BD1F4829
:10299000A042BCBF9FED1E1B8DED001B06DBA4F506
:1029A00000100190002000909DED001B51EC100BD9
:1029B00053EC112B00F086FE9DED000B41EC180B43
:1029C00053EC102B51EC1A0B00F07CFE41EC1A0B6F
:1029D00053EC192B51EC180B00F074FE53EC1A2B2E
:1029E00000F064FE41EC100BCCE70000000000009A
:1029F000000000000000F03FBC30000000000000BC
:102A0000000000000000E03F3333D33F0000E93F07
:102A1000000000000000D23F70B504462DED028B8F
:102A20004D1E00EBC500B0EE408AF0EE608A90EDDE
:102A3000000B35F0060017D053EC182B51EC100B9F
:102A400000F036FD41EC100B6D1E04EBC50090ED5F
:102A5000001B51EC100B53EC112B00F0CFFA41ECA2
:102A6000100B35F00600E7D1022D36D0042D1CD016
:102A7000062D1CBFBDEC028B70BD53EC182B51EC26
:102A8000100B00F015FD94ED0A1B53EC112B00F018
:102A9000B5FA53EC182B00F00BFD94ED081B53EC2A
:102AA000112B00F0ABFA41EC100B53EC182B51EC4E
:102AB000100B00F0FDFC94ED061B53EC112B00F005
:102AC0009DFA53EC182B00F0F3FC94ED040B53EC3F
:102AD000102B00F093FA41EC100B53EC182B51EC37
:102AE000100B00F0E5FC94ED021B53EC112B00F0F1
:102AF00085FA53EC182B00F0DBFC94ED001B53EC33
:102B0000112B00F07BFABDEC028B41EC100B70BD79
:102B100031B504462DED040B2DED0A8BB0EE41BA14
:102B2000F0EE61BA0B989DED0A0B20F00040B0F179
:102B3000795F0DDA51EC100BFFF7A9FB042808BFF1
:102B400000F09AF89DED0A0BBDEC0A8B05B030BD84
:102B500053EC102B51EC100B00F0AAFC41EC180BBD
:102B60009DED0A0B53EC182B51EC100B00F0A0FC60
:102B700041EC190B2C48B0EE480AF0EE680A05212A
:102B80007844FFF749FF9FED2ACBB0EE40AAF0EE64
:102B900060AA9CB353EC1C2B51EC190B00F088FC81
:102BA00041EC1C0B53EC1A2B51EC190B00F080FC80
:102BB0009FED210B41EC190B53EC102B51EC1B0B2F
:102BC00000F076FC53EC192B00F07CFD53EC182B35
:102BD00000F06EFC53EC1B2B00F074FD53EC1C2B2F
:102BE00000F070FD9DED0A1B53EC112B00F05EFD13
:102BF000BDEC0A8B05B041EC100B30BDFFE753EC88
:102C00001A2B51EC180B00F053FC53EC1C2B00F06A
:102C1000F5F953EC192B00F04BFC9DED0A1B53EC1E
:102C2000112B00F0EBF9E3E7442F00000000000057
:102C3000495555555555C5BF000000000000E03FFF
:102C400010B553EC102B51EC100B00F0D7F941EC00
:102C5000100B10BD000000009FED050B10B553ECEC
:102C6000102B51EC100B00F071FA41EC100B10BD61
:102C700000000000000000009FED050B10B553ECB4
:102C8000102B51EC100B00F013FC41EC100B10BD9D
:102C9000000000000000001030380A2801D2012096
:102CA00070470020704782B0CDE9000121F000405C
:102CB00001909DED000B02B051EC100B704700002D
:102CC0002DED068B8AB0FDF7CFFFFFF78BFAFEF7ED
:102CD0005FFEFEF7ADFEFEF729FE8B488949002511
:102CE000C0E900157F218160FF21C0E9031545611E
:102CF0008561FEF7A9FB08B172B6FEE7FFF752F94E
:102D00000120FFF7A9F94FF6FF742046FFF73CF9C1
:102D10007E4E9FED7F8B9FED809BA0467A4CDFF827
:102D20000092DFF800B2DFF800A2B43C764900223E
:102D3000B4397548FEF75CFB002274497248FEF70F
:102D400035FBA07800906378227878A107A8FDF77A
:102D500007FBF07800907378B27878A104A8FDF7AB
:102D6000FFFAB0EE4A0AF0EE6A0AFFF7B9FA53EC3E
:102D7000182B51EC100B00F09BFB53EC182B00F0C0
:102D800095FC00F03BFB07B2B0EE4A0AF0EE6A0A8F
:102D9000FFF70AFB53EC192B51EC100B00F088FBEA
:102DA00053EC182B00F02AF900F028FB02B219218D
:102DB0003B460846CDF80080FEF7A0FF61782078FA
:102DC00000F0E2F8B0EE40AAF0EE60AAFFF788FA51
:102DD00053EC182B51EC100B00F06AFB53EC182B42
:102DE00000F064FC00F00AFB07B2B0EE4A0AF0EE15
:102DF0006A0AFFF7D9FA53EC192B51EC100B00F0CB
:102E000057FB53EC182B00F0F9F800F0F7FA02B278
:102E100019213B4608460095FEF770FF1921002353
:102E200017220846FEF7E2FE307808280BD2DFE8CA
:102E300000F00A04063436383A3C45A100E046A1C9
:102E400003A8FDF764FBCDE90158D9F804100091FF
:102E500007AA37210F20D9F80030FEF7D3FFCDE9BC
:102E60000158DBF8040000905F4604AA5A2119209B
:102E7000DBF80030FEF7C6FFCDE901587868009016
:102E800003AA142155203B68FEF7BCFF08215746D2
:102E90005046FDF7D1FE50B118E031A1D0E732A184
:102EA000CEE733A1CCE734A1CAE735A1C8E7607803
:102EB0003B2822D0401C60701349A5700022B43911
:102EC0001148FEF733FB9620FDF7ACFD1021384684
:102ED000FDF7B2FE00287FF429AF207817280ED026
:102EE000401C20700849A5700022B4390648FEF73E
:102EF0001DFB9620FDF796FD18E76570DCE7257051
:102F0000F0E7000000280040E80000201D0000203D
:102F100000000000000039400000000000003740C1
:102F2000140000200C00002000100240252E326406
:102F30003A252E32643A252E32640000252E326462
:102F40002F252E32642F3230252E326400000000EF
:102F50004D4F4E0000000000545545000000000099
:102F60005745440000000000544855000000000090
:102F70004652490000000000534154000000000088
:102F800053554E000000000010B50D282DED028BAA
:102F900000D30C38C4B2084600F076FA9FED0D1B42
:102FA00053EC112B00F084FA41EC180BC4EB041025
:102FB000400000F069FA53EC182B00F01FF89FED69
:102FC000071B53EC112B00F073FABDEC028B41ECA4
:102FD000100B10BD000000000000E03F5F40D42255
:102FE00047DF913F81F00041704780F0004070471B
:102FF00021F00041704720F00040704710B591EA81
:10300000030F48BF83F0004300F16483841A71EB1F
:10301000030C05D2121943EB0C03001B61EB0C01EE
:10302000DFF824E14FEA1154A4EB135C1EEA430FCE
:1030300018BF9EEA445F73D023EA0E03DCF1200E32
:1030400021EA045143F4801332D322FA0CFE10EB30
:103050000E0023FA0CFE41EB0E01CCF1200E03FA18
:103060000EFE10EB0E0051F10001B1F5801FCCF106
:10307000200E32D201EB045112FA0EF2BDE81040DC
:1030800058BF7047401C38BF5FEA420218BF704704
:10309000002814BF20F0010041F100014FEA410374
:1030A00013F5001F38BF7047A1F1C04100F0F8BA16
:1030B000012A43EB0302ACF1200CDCF11F0E32BFFE
:1030C0004FF0000E23FA0CF310EB030041EB045118
:1030D000B4EB115FD0D0A1EB045101F58011490888
:1030E0005FEA300001EB04510ED350F1000038BF0D
:1030F00012FA0EFE08D1BDE81040C9E7401C38BFE7
:103100005FEA4202CAD1C3E7BDE810404FEA41037B
:1031100013F5001F38BF7047A1F1C04100F0C0BADD
:103120009EEA445F08D011EA5E0FBDE8104004BF7C
:1031300001F0004100207047BDE8104070B500F07C
:1031400061FA00BF64FBBE3E0000E0FF2DE9C04114
:1031500030B4DFF8A0C23CEA111418BF3CEA1314E3
:1031600000F0EC8081EA03051CEA111444EAD574EE
:1031700018BF1CEA131500F0C780A4EB05044FF03C
:10318000004545EAC12145EAC32341EA505143EADB
:10319000525304F17F74994204F500344FEAC02081
:1031A0004FEAC22208BF904200F09C804FEA1365AC
:1031B0000FF24016765D4FEA134506FB05F7C7F19F
:1031C000807706FB07F74FEAD737A7FB03687642FD
:1031D000C8F58038A7FB06CE38BFA8F1010807FB69
:1031E00008E64FF0000EA6FB028CE6FB03CEDCF1F6
:1031F000000CCEF1004E38BFAEF1010EA6FB0C580C
:103200004FF000074FF00005E6FB0E87A1FB08C654
:10321000A0FB07CE16EB0E0645F10005E1FB0765A6
:1032200015F1E04E7EBFA4F580345FEA46066D419D
:1032300016F1800745F100054FEA17274FEA0666A9
:1032400047EA0567A6F1DE46B6F1805F4FEA15252D
:103250001FD9384624F0010C05EBC471BCF1FE6F98
:1032600001EB0C1102D8F0BCBDE8008124425CBF28
:1032700001F5801E9EEAC47F02D4F0BCBDE8008147
:10328000244238D4F0BCA1F1C041BDE8004100F0B7
:1032900007BA4FEAD22242EA43524FEAD323A7FBAE
:1032A00002864FEAD02040EA415007FB03661EEA3F
:1032B0000E0F4FEAD12105FB026658BFA6EB005660
:1032C000B6EB00564FEA520E4EEAC37E18EB0E0ED6
:1032D00056EB530EBDD518EB02085E417F1C55F12D
:1032E0000005B6E74FF480154FF000074FF00006D9
:1032F0004FF00008ADE7F0BC4FF0000001F1C04115
:1033000001F00041BDE8008111EA0C1F0CEA131521
:1033100000D00CE013EA0C1F00F025804FF00000F5
:10332000F0BC81EA030101F00041BDE80081F0BC7E
:10333000BDE8004181EA030100F0B2B9F0BCBDE88C
:10334000004170B500F05EF9097EFC3E00F007B860
:1033500081EA03014FF0000001F00041704781EA6B
:10336000030100F09DB9F0BCBDE800414FF0000042
:1033700021497047FFFDFBF9F7F5F4F2F0EEEDEBB4
:10338000E9E8E6E4E3E1E0DEDDDBDAD8D7D5D4D363
:10339000D1D0CFCDCCCBCAC8C7C6C5C4C2C1C0BFAF
:1033A000BEBDBCBBBAB9B8B7B6B5B4B3B2B1B0AFB5
:1033B000AEADACABAAA9A8A8A7A6A5A4A3A3A2A199
:1033C000A09F9F9E9D9C9C9B9A9999989797969554
:1033D00095949393929191908F8F8E8E8D8C8C8BF0
:1033E0008B8A898988888787868585848483838278
:1033F000828181800000FF070000F87F4FEA4103CF
:103400004FEA5353A3F58063D3F11E03C8BFD3F132
:10341000210C0CDD4FF0004242EAC12242EA505238
:1034200032FA03FC8CEAE17CACEBE1707047102BC4
:10343000C4BF0020704703F5787CBCF1FF3F04D087
:103440006FF0004282EA2100704770B500F0DAF8B0
:103450004992248000207047F2E710F0004248BFF4
:103460004042B0FA80F310FA03F10AD0C3F11D0311
:1034700003F580634FEA415002EB035202EBD12186
:1034800070474FF000007047B0FA80F310FA03F174
:103490000AD0C3F11D0303F580634FEA41504FEAA0
:1034A000035202EBD12170474FF00000704700003B
:1034B000DFF848C170B51CEA111E1EBF1CEA1315C7
:1034C0009EEA0C0F95EA0C0F00F06F8081EA03046E
:1034D00023EA4C134EEAD47E21EA4C1141F48011C8
:1034E00043F48013AE44A1FB024CA0FB0365AEF194
:1034F0007F7E361955EB0C05A1FB034C4CF1000304
:10350000A0FB021C16EB0C06654153F100030942B7
:1035100018BF46F0010613F4007F0BD14FEA0331C8
:103520004FEA0530340341EA155140EA16506FF076
:1035300003020AE04FEAC3214FEAC520F40241EA40
:10354000555140EA56506FF0020202EB2E4201EB59
:10355000025585EACE710AD05FEA440C18BF24F008
:10356000004450F1000041F1000120EAD47040F223
:10357000FE7C624500D270BDA84214BF4FF080446B
:103580004FF04044002E08BF0024BEF1806FA8BF5A
:10359000A1F1C041BDE8704080F282804FF0000090
:1035A00001F1C04101F0004170479EEA0C0F0CEAA6
:1035B000131518BF95EA0C0F06D04FF0000081EAF2
:1035C000030E0EF0004170BD00F01CF88900013EB2
:1035D00000F007B800F009B84FEA430C5FEA5C5C02
:1035E00008D081EA030100F05BB84FEA410C5FEAC2
:1035F0005C5CF6D14FF00000014970470000FF0706
:103600000000F87F0EF1020E2EF0030E5EF8046B40
:10361000364205D4012A43EB030515F5001F12D8E5
:10362000012841EB010C1CF5001F0CD80ED14FEA0C
:10363000D17C15F5001F0CEB4C0C0CF1020C08BFF3
:103640004CEBD37C04E04FF0080C01E04FEAD37C54
:103650000CEB4C0526FA05F606F00706B6F1040C4D
:1036600006D20EEB860CBDE870404CF0010C6047B2
:10367000DFE80CF0090B02024FF000414FF00000B0
:10368000A1F5002170BD19461046012851EB010437
:1036900018BFD4F5001484BF002001F0004170BDB4
:1036A0000808A0F500114FEA3101704791EA030FB5
:1036B00010B581F000413FF5A9AC83F0004300F064
:1036C00009B8000010B591EA030F48BF83F000432A
:1036D0003FF59CAC841A71EB030C07D212198CF0E5
:1036E000004C43EB0C03001B61EB0C01DFF8A4E181
:1036F0004FEA1154A4EB135C1EEA430F18BF9EEA75
:10370000445F00F0B08023EA6E03524221EA045184
:10371000C3EB6E0338BF5B1EDCF1200E25D322FA0B
:103720000CFE10EB0E0043FA0CFE41EB0E01CCF147
:10373000200E03FA0EFE10EB0E0051F10001CCF149
:10374000200E29D412FA0EF201EB0451BDE810400C
:1037500058BF7047401C1CBFB2F1004F7047002893
:103760000CBF491C20F00100704712EB020E43EB26
:10377000030218BF4FF0010E4EEA4202ACF1200CDA
:10378000DCF11E0E54D943FA0CFE10EB0E0051F181
:10379000FF31CCF11E0ED5D50EF1010E12FA0EFE40
:1037A000404141EB010101EB445C5FEA5C5C10D9F4
:1037B00010EBDE7001EB045138BFBEF1004FBDE8E5
:1037C000104018BF704700280CBF491C20F00100B2
:1037D000704730D24FEAD42C11F5001124F4006464
:1037E0001BD0B1FA81F20B3AA41AA41ED2F1200325
:1037F000914030FA03F31943904001EBCC71002C57
:1038000001EB0451BDE81040A8BF704701F1C04171
:103810004FF0000001F000417047B0FA80F310FA59
:1038200003F100D110BDE41A173C4805C90AE4E7CA
:1038300001EB045110BD491001EB0451BDE81040EB
:103840004FEA300002E04FF0000170474A0008BF25
:103850000042F8D0B2F5001F28BF704701F00041C8
:103860004FF0000070479EEA445F07D011EA5E0FF8
:10387000BDE8104004BF002100207047BDE81040A3
:1038800070B5FFF7BFFE00BF40DFF63E83F000419A
:10389000104670470000E0FF4FF04070E1EE100A64
:1038A00070470F0120961120FFB103012C2DB203A8
:1038B000012C2DB306012C2D012C2DB40107C003C2
:1038C000A20284C101C5C2020A00C3028A2AC4023C
:1038D0008AEEC5010E20003601C03A0105022A0415
:1038E0000000007F2B040000007F04E010021C0792
:1038F000123732292D29252B3900010310E110033D
:103900001D07062E2C292D2E2E373F0000021013E6
:10391000200A2920640000000000000000000000D0
:103920000000000000000000000000000000000097
:10393000000000000000000000000000000C000C6F
:10394000000C000C000C000C000C000C000C000C17
:10395000000C0000000C000C000000000000000043
:10396000001B001B001B001B001B000000000000D0
:103970000000000000000000000000000000000047
:10398000000000008019801980198019C07FC07F55
:1039900080190033C07FC07F003300330033003311
:1039A0000000000000000000001E003F80758065E0
:1039B0000074003C001E00078005806580658075EE
:1039C000003F001E0004000400000000007000D84A
:1039D00040D8C0D880D900730006000C801BC036C8
:1039E000C066C046C0068003000000000000000062
:1039F000001E003F003300330033001E000CC03CAB
:103A0000C066806380618063C03E801C000000004F
:103A100000000000000C000C000C000C000C00006A
:103A20000000000000000000000000000000000096
:103A300000000000000080000001000300060006F6
:103A40000004000C000C000C000C000C000C000426
:103A5000000600060003000180000020001000188E
:103A6000000C000C0004000600060006000600061C
:103A700000060004000C000C0018001000200000DC
:103A8000000C002D003F001E00330000000000006D
:103A90000000000000000000000000000000000026
:103AA0000000000000000000000C000C000C000CE6
:103AB000C0FFC0FF000C000C000C000C0000000058
:103AC00000000000000000000000000000000000F6
:103AD00000000000000000000000000000000000E6
:103AE000000C000C000400040008000000000000AE
:103AF000000000000000000000000000001E001E8A
:103B000000000000000000000000000000000000B5
:103B100000000000000000000000000000000000A5
:103B20000000000000000000000C000C000000007D
:103B3000000000000003000300030006000600066A
:103B40000006000C000C000C000C001800180018F7
:103B50000000000000000000001E003F00338061F4
:103B600080618061806D806D8061806180610033E3
:103B7000003F001E00000000000000000006000ED4
:103B8000001E00360026000600060006000600069D
:103B9000000600060006000600000000000000000D
:103BA000001E003F80738061806180010003000679
:103BB000000C001800300060807F807F0000000053
:103BC00000000000001C003E006300630003000EC4
:103BD000000E00038001800180618073003F001EA1
:103BE00000000000000000000006000E000E001E95
:103BF000001E0016003600360066807F807F0006BB
:103C0000000600060000000000000000007F007FAA
:103C1000006000600060006E007F806380018001B2
:103C200080618073003F001E000000000000000063
:103C3000001E003F803380610060006E007F807353
:103C40008061806180618033003F001E00000000C1
:103C500000000000807F807F8001000300030006D9
:103C60000006000C000C000C0008001800180018DA
:103C70000000000000000000001E003F8063806123
:103C800080610021001E003F806180618061806151
:103C9000003F001E0000000000000000001E003F6A
:103CA00000738061806180618073803F801D80012E
:103CB00080610073003F001E000000000000000053
:103CC0000000000000000000000C000C00000000DC
:103CD0000000000000000000000C000C00000000CC
:103CE0000000000000000000000000000000000CC8
:103CF000000C00000000000000000000000C000CA0
:103D00000004000400080000000000000000800023
:103D10008003000E003800600038000E8003800031
:103D20000000000000000000000000000000000093
:103D300000000000807F807F00000000807F807F87
:103D40000000000000000000000000000000000073
:103D500000000000000000400070001C000780010F
:103D60000007001C00700040000000000000000080
:103D700000000000001F803FC071C060C000C00193
:103D800080030007000E000C000C0000000C000C6B
:103D90000000000000000000001E003F8031807124
:103DA0008063806F806D806D806F806700600032FF
:103DB000003E001C0000000000000000000E000E8D
:103DC000001B001B001B001B80318031803F803FA7
:103DD0008031C060C060C0600000000000000000D2
:103DE000007C007E0063006300630063007E007E51
:103DF0000063806180618063007F007E00000000BE
:103E000000000000001E003F803180610060006003
:103E1000006000600060006080618031003F001E33
:103E20000000000000000000007C007F0063806351
:103E30008061806180618061806180610063006376
:103E4000007E007C0000000000000000807F807F7A
:103E50000060006000600060007F007F0060006024
:103E600000600060807F807F000000000000000094
:103E7000807F807F0060006000600060007F007FC6
:103E800000600060006000600060006000000000F2
:103E900000000000001E003F803180610060006073
:103EA000006080638063806180618031803F001E9C
:103EB000000000000000000080618061806180617E
:103EC00080618061807F807F8061806180618061AE
:103ED000806180610000000000000000003F003FA2
:103EE000000C000C000C000C000C000C000C000C72
:103EF000000C000C003F003F00000000000000002C
:103F000080018001800180018001800180018001A9
:103F10008001806180618073003F001E000000000E
:103F200000000000C0608061006300660066006CF5
:103F30000078007C00660066006380618061C0607C
:103F400000000000000000000060006000600060F1
:103F50000060006000600060006000600060006061
:103F6000807F807F0000000000000000C071C071F1
:103F7000C07BC07AC06AC06AC06EC064C060C060E6
:103F8000C060C060C060C0600000000000000000B1
:103F900080718071807980798079806D806D806D8D
:103FA00080658067806780678063806300000000B1
:103FB00000000000001E003F0033806180618061CE
:103FC000806180618061806180610033003F001EFC
:103FD0000000000000000000007E007F8063806120
:103FE000806180618063007F007E0060006000600F
:103FF000006000600000000000000000001E003FA4
:104000000033806180618061806180618061806552
:1040100080670033803F401E000000000000000069
:10402000007E007F8063806180618063007F007E0E
:1040300000660063006380618061C0600000000072
:1040400000000000000E001F803180310030003879
:10405000001E00078003806180618031003F001EE8
:104060000000000000000000C0FFC0FF000C000CBA
:10407000000C000C000C000C000C000C000C000CE0
:10408000000C000C00000000000000008061806156
:104090008061806180618061806180618061806118
:1040A00080618073003F001E0000000000000000DF
:1040B000C060C060C060803180318031001B001B57
:1040C000001B001B000E000E000E0004000000008C
:1040D00000000000C0C0C0C0C0C0C0C0C0C0C0CCD4
:1040E000804C804C805E8052805280738061806101
:1040F0000000000000000000C0C08060806100334C
:10410000003B001E000C000C001E001F003B8071D5
:104110008061C0C00000000000000000C0C08061DD
:10412000806100330033001E001E000C000C000CE8
:10413000000C000C000C000C00000000000000004F
:10414000803F803F8001000300030006000C000C4C
:104150000018001800300060807F807F00000000A1
:104160000000000F000F000C000C000C000C000CF5
:10417000000C000C000C000C000C000C000C000CDF
:10418000000C000F000F0000001800180018000CB1
:10419000000C000C000C00060006000600060003E0
:1041A00000030003000000000000001E001E0006C7
:1041B00000060006000600060006000600060006CF
:1041C00000060006000600060006001E001E000095
:1041D000000C000C001E001200330033806180616F
:1041E00000000000000000000000000000000000CF
:1041F00000000000000000000000000000000000BF
:1042000000000000000000000000000000000000AE
:104210000000E0FF0000000000380018000C000063
:10422000000000000000000000000000000000008E
:10423000000000000000000000000000000000007E
:1042400000000000001F803F80618001801F803FD0
:1042500080618063807FC0380000000000000000A3
:104260000060006000600060006E007F807380610D
:104270008061806180618073007F006E00000000BB
:10428000000000000000000000000000001E003FD1
:10429000807380610060006080618073003F001E59
:1042A000000000000000000080018001800180010A
:1042B000801D803F80738061806180618061807338
:1042C000803F801D00000000000000000000000092
:1042D00000000000001E003F00738061807F807F2F
:1042E00000608071003F001E000000000000000020
:1042F000C007C00F000C000C807F807F000C000CFA
:10430000000C000C000C000C000C000C0000000065
:1043100000000000000000000000801D803F80734E
:1043200080618061806180618073803F801D800139
:104330008063007F003E000000600060006000605D
:10434000006F807F807180618061806180618061A9
:10435000806180610000000000000000000600068F
:1043600000000000003E003E0006000600060006B9
:10437000000600060006000600000000000000061F
:10438000000600000000003E003E00060006000699
:104390000006000600060006000600060046007E35
:1043A000003C00000060006000600060806100630D
:1043B0000066006C007C0076006300638061C06072
:1043C0000000000000000000003E003E0006000665
:1043D00000060006000600060006000600060006AD
:1043E00000060006000000000000000000000000C1
:1043F0000000000080DDC0FFC0CEC0CCC0CCC0CC6F
:10440000C0CCC0CCC0CCC0CC00000000000000007C
:104410000000000000000000006F807F807180615C
:104420008061806180618061806180610000000046
:10443000000000000000000000000000001E003F1F
:10444000807380618061806180618073003F001EA5
:104450000000000000000000000000000000006EEE
:10446000007F807380618061806180618073007FE4
:10447000006E00600060006000600000000000004E
:104480000000801D803F8073806180618061806159
:104490008073803F801D80018001800180010000C9
:1044A00000000000000000000067803F003900307D
:1044B00000300030003000300030003000000000DC
:1044C000000000000000000000000000001E803F0F
:1044D00080610060007F803F80018061007F001E5E
:1044E0000000000000000000000000080018001894
:1044F000007F007F0018001800180018001800182E
:10450000801F800F0000000000000000000000007D
:104510000000000080618061806180618061806155
:1045200080618063807F803D00000000000000000B
:104530000000000000000000C06080318031803148
:10454000001B001B001B000E000E000600000000F8
:1045500000000000000000000000000080DD80DDA1
:1045600080DD0055005500550077007700220022BD
:10457000000000000000000000000000000000003B
:10458000806100330033001E000C000C001E00335D
:104590000033806100000000000000000000000007
:1045A000000080618061803100330033001B001BFC
:1045B000001B000E000E000E001C007C00700000AE
:1045C0000000000000000000C07FC07F80010003E9
:1045D0000006000C00180030C07FC07F0000000003
:1045E00000008003800700060006000600060006A3
:1045F000000E001C001C000E00060006000600064F
:10460000000680078003000600060006000600067C
:10461000000600060006000600060006000600066A
:10462000000600060006000600060038003C000CEC
:10463000000C000C000C000C000E00070007000E20
:10464000000C000C000C000C000C003C00380000BA
:104650000000000000000000000000008038807FA3
:104660000047000000000000000000000000000003
:10467000000000000000000000000000000000003A
:10468000000000000000000000000000000000002A
:10469000000000000000000000000000000000001A
:1046A000000000000000E003E003E003E003E0039B
:1046B000E003E003E003C003C003C001C001C00188
:1046C000C001C001000000000000E003E003E003BF
:1046D000000000000000000000003C1E3C1E3C1ECC
:1046E0003C1E3C1E3C1E3C1E000000000000000062
:1046F00000000000000000000000000000000000BA
:104700000000000000000000000000000000CE01DA
:10471000CE03DE039E039C039C07FF3FFF7F380709
:10472000380F780F780F780EFFFFFFFFF01EF01C98
:10473000E01CE03CE03DE03900000000000000002B
:104740000000FC03FE0FEE1FE01EE01EE01EE01E58
:10475000E01FE00FE007F003FC01FE01FE01FE0197
:10476000FE01FE01FE01FE3DFC3FF00FE001E00115
:10477000000000000000033E07F78FE78EE79EE38E
:10478000BCE3B8E7F8E7F0F7E03FC001FF03FF073D
:10479000F307F30FF31EF33CF338F3787FF03FE0B9
:1047A00000000000000000000000E007F80F780F94
:1047B000781F781F781F780FF00FE00F801FC37FDE
:1047C000C3FBE7F3F7F1F7F0FFF07FF03EF87F7CF3
:1047D000FF3FEF1F00000000000000000000E003AA
:1047E000E003E003E003E003C003C00100000000B9
:1047F00000000000000000000000000000000000B9
:1048000000000000000000000000000000000000A8
:1048100000003F007C00F001E001C003C0078007FA
:104820008007800F000F000F000F000F000F000F18
:10483000800F80078007C007C003E001F0017C0003
:104840003F000F000000007E001FC007C003E00112
:10485000F001F000F000F8007800780078007800AF
:1048600078007800F800F000F000F001E001C003EB
:10487000C007001F007E00780000E003C003C001F5
:10488000CE39FF3F7F3F20037003F807780F3C1FAE
:1048900038060000000000000000000000000000DA
:1048A0000000000000000000000000000000000008
:1048B00000000000000000000000C001C001C001B5
:1048C000C001C001C001C001FFFFFFFFC001C00166
:1048D000C001C001C001C0010000000000000000D4
:1048E00000000000000000000000000000000000C8
:1048F00000000000000000000000000000000000B8
:1049000000000000E003E003E003E003E001E00159
:10491000E001C00180030000000000000000000072
:10492000000000000000000000000000FE3FFE3F0D
:104930000000000000000000000000000000000077
:104940000000000000000000000000000000000067
:104950000000000000000000000000000000000057
:10496000000000000000000000000000E003E00381
:10497000E003E003000000000000000000000F0062
:104980000F001E001E003C003C0078007800F00084
:10499000F000E001E001C003C00380078007000FC2
:1049A000000F001E001E003C003C0078007800F064
:1049B0000000F007F80F7C1F3E3E1E3C1F7C1F7C52
:1049C0000F780F780F780F780F780F780F781F7C9B
:1049D0001F7C1E3C3E3E7C1FF80FF00700000000CD
:1049E000000000000000F000F007F03FF03FF00191
:1049F000F001F001F001F001F001F001F001F0012F
:104A0000F001F001F001F001F001F001FF3FFF3F84
:104A100000000000000000000000E00FF83F7C3CB8
:104A20003C003E003E003E003C003C007C00F800A4
:104A3000F001E003C0078007000F001E003E003CAD
:104A4000FE3FFE3F00000000000000000000F00FED
:104A5000F81F7C1C3E003E003E003C003C00F8007D
:104A6000F00FF80F7C003E001E001E001E001E000E
:104A70003E007C1CF81FE01F00000000000000004A
:104A800000007800F800F800F801F803F807F807CC
:104A9000780F781E781E783C78787878FFFFFFFFD3
:104AA0007800780078007800780078000000000036
:104AB000000000000000FC1FFC1FFC1F001E001E69
:104AC000001E001E001EE01FF81FFC007C003E00C0
:104AD0003E001E003E003E003C007C1CF81FE01F14
:104AE00000000000000000000000FC01FE078E0F27
:104AF000001F001E003E003C003CF83DFC3F3E7F96
:104B00001F7E0F3C0F3C0F3C0F3C0F3E1F1E3E1FF5
:104B1000FC0FF00300000000000000000000FF3F59
:104B2000FF3FFF3F0F001E001E003C0038007800D2
:104B3000F000F000E001E001C003C0038007800F37
:104B4000800F000F001F001F000000000000000089
:104B50000000F807FC0F3E1F1E1E1E3E1E3E1E1EBE
:104B60003C1FF80FF007F80FFC1E3E3E1F3C1F7C59
:104B70000F7C0F7C1F3C3E3FFC1FF0070000000035
:104B8000000000000000F007F80F7C1E3E3C1E3CB9
:104B90001F7C1F7C1F7C1F7C1F3C3F3EFF1FEF07BD
:104BA0001F001E001E003E003C00F838F03FE01FD2
:104BB00000000000000000000000000000000000F5
:104BC000000000000000E003E003E003E003000059
:104BD000000000000000000000000000E003E0030F
:104BE000E003E003000000000000000000000000FF
:104BF00000000000000000000000E003E003E0030C
:104C0000E0030000000000000000000000000000C1
:104C1000E003E003E003E003E001E001E001C003A2
:104C200080030000000000000000000000000300FE
:104C30000F003F00FC00F003C00F003F00FE003FEC
:104C4000C00FF003FC003F000F0003000000000055
:104C50000000000000000000000000000000000054
:104C600000000000000000000000FFFFFFFF000048
:104C700000000000FFFFFFFF000000000000000038
:104C80000000000000000000000000000000000024
:104C900000000000000000E000F8007E801FE00738
:104CA000F8017E001F007E00F801E007801F007EF3
:104CB00000F800E000000000000000000000F01F0D
:104CC000FC3F3E381F381F381E001E003C00780095
:104CD000F000E001C003C003C007C00700000000EF
:104CE0000000C007C007C00700000000000000006F
:104CF0000000F803FE0F1E1F0F3E7F3CFF78EF7988
:104D0000C773C7F38FF38FF38FF39FF39FF3FF7393
:104D1000FF7BF779003C1C1FFC0FF803000000002C
:104D2000000000000000000000000000E003E003BD
:104D3000F007F007F007780F780F7C0E3C1E3C1E42
:104D40003E3CFE3FFF3F1F780F780FF007F007F063
:104D50000000000000000000000000000000000053
:104D6000F83FFC3F3E3C1E3C1E3C1E3C3E3C7C3C17
:104D7000F03FF83F7E3C1F3C1F3C0F3C0F3C1F3C6C
:104D8000FE3FF83F000000000000000000000000AF
:104D900000000000FF01FF07871F003E003C007C71
:104DA00000780078007800780078007C007C003E75
:104DB000003F831FFF07FF0100000000000000000C
:104DC0000000000000000000F07FFC7F7E781F786C
:104DD0001F780F780F780F780F780F780F780F788B
:104DE0000F781F781E787E78F87FE07F0000000043
:104DF000000000000000000000000000FF3FFF3F37
:104E0000003E003E003E003E003E003EFE3FFE3FB4
:104E1000003E003E003E003E003E003EFF3FFF3FA2
:104E20000000000000000000000000000000000082
:104E3000FF1FFF1F001E001E001E001E001E001E82
:104E4000FF1FFF1F001E001E001E001E001E001E72
:104E5000001E001E00000000000000000000000016
:104E600000000000FE03FF0F871F003E007C007C57
:104E7000007800F800F87FF87FF80F780F7C0F7C3F
:104E80000F3E8F1FFF0FFE03000000000000000018
:104E900000000000000000001F7C1F7C1F7C1F7CA6
:104EA0001F7C1F7C1F7C1F7CFF7FFF7F1F7C1F7C64
:104EB0001F7C1F7C1F7C1F7C1F7C1F7C0000000050
:104EC000000000000000000000000000FF3FFF3F66
:104ED000E003E003E003E003E003E003E003E003BA
:104EE000E003E003E003E003E003E003FF3FFF3FF4
:104EF00000000000000000000000000000000000B2
:104F0000FC1FFC1F7C007C007C007C007C007C0083
:104F10007C007C007C007C007C0078007800F83805
:104F2000F03FC03F00000000000000000000000053
:104F3000000000001F3C1E3C3C3C783CF03CE03D47
:104F4000E03FC03F803FC03FE03FF03DF03C783C59
:104F50007C3C3E3C1F3C0F3C000000000000000079
:104F60000000000000000000003E003E003E003E49
:104F7000003E003E003E003E003E003E003E003E41
:104F8000003E003E003E003EFF3FFF3F00000000AD
:104F90000000000000000000000000001FF81FFCDF
:104FA0001FFC3FFE3FFE3FFE7FFF77FF77FFF7F7D7
:104FB000E7F7E7F3E7F3C7F307F007F007F007F0C9
:104FC00000000000000000000000000000000000E1
:104FD0000F7C0F7C0F7E0F7F0F7F8F7F8F7FCF7FA8
:104FE000EF7BEF79FF79FF78FF787F783F783F7824
:104FF0001F781F7800000000000000000000000083
:1050000000000000F007FC1F3E3E1F7C0F780F7869
:105010000FF80FF80FF80FF80FF80FF80F780F7858
:105020001F7C3E3EFC1FF007000000000000000057
:105030000000000000000000FC3FFF3F1F3E0F3E4D
:105040000F3E0F3E0F3E1F3E3F3EFC3FF03F003EF7
:10505000003E003E003E003E003E003E00000000DC
:10506000000000000000000000000000F007FC1F2E
:105070003E3E1F7C0F780F780FF80FF80FF80FF8EF
:105080000FF80FF80F780F781F7C3E3EFC1FF807D3
:105090007C003F000F000300000000000000000043
:1050A000F03FFC3F7E3C3E3C1E3C1E3C3E3C3C3CBC
:1050B000FC3CF03FE03FF03DF83C7C3C3E3C1E3C7D
:1050C0001F3C0F3C0000000000000000000000003A
:1050D00000000000FC07FE1F0E3E003C003C003CB0
:1050E000003EC01FF80FFE037F001F000F000F00DF
:1050F0001F203E3CFC3FF01F0000000000000000AD
:105100000000000000000000FFFFFFFFE003E003DD
:10511000E003E003E003E003E003E003E003E00377
:10512000E003E003E003E003E003E003000000002D
:105130000000000000000000000000000F7C0F7C59
:105140000F7C0F7C0F7C0F7C0F7C0F7C0F7C0F7C07
:105150000F7C0F7C0F7C1E3C1E3C3E3EFC1FF0076C
:10516000000000000000000000000000000000003F
:1051700007F007F007F80F780F7C1E3C1E3C1E3E20
:105180003C1E3C1F781F780FF80FF007F007F00760
:10519000E003E00300000000000000000000000049
:1051A0000000000003E003F003F007F0E7F3E7F38B
:1051B000E7F3E773F77BF77FFF7F7F7F7F7F7E7F5C
:1051C0007E3F3E3E3E3E3E3E0000000000000000AE
:1051D000000000000000000007F80F7C1E3E3E3E6D
:1051E0003C1FF80FF007E007E003E003F007F80FBB
:1051F0007C0F7C1E3E3C1F780F780FF000000000F3
:1052000000000000000000000000000007F8077820
:105210000F7C1E3C1E3E3C1F780FF80FF007E0038A
:10522000E003E003E003E003E003E003E003E00366
:10523000000000000000000000000000000000006E
:10524000FF7FFF7F0F001F003E007C00F800F00092
:10525000E001E003C007800F000F001E003E007C4D
:10526000FF7FFF7F00000000000000000000FF073C
:1052700080078007800780078007800780078007F6
:1052800080078007800780078007800780078007E6
:10529000800780078007800780078007FF07FF07D8
:1052A000000000780078003C003C001E001E000F4B
:1052B000000F80078007C003C003E001E001F00099
:1052C000F000780078003C003C001E001E000F003B
:1052D0000F0007000000F07FF000F000F000F00089
:1052E000F000F000F000F000F000F000F000F0003E
:1052F000F000F000F000F000F000F000F000F0002E
:10530000F000F000F07FF07F0000C000C001C0019D
:10531000E003E003F007F0077807780F380F3C1E32
:105320003C1E1E3C1E3C0F380F7807780000000022
:10533000000000000000000000000000000000006D
:10534000000000000000000000000000000000005D
:10535000000000000000000000000000000000004D
:105360000000000000000000FFFFFFFF0000000041
:105370000000F0000000000000000000000000003D
:10538000000000000000000000000000000000001D
:10539000000000000000000000000000000000000D
:1053A00000000000000000000000000000000000FD
:1053B0000000F80FFC3F7C3C3E003E003E00FE0734
:1053C000FE1F3E3E3E7C3E783E7C7E7CFF3FCF1FF4
:1053D00000000000000000000000003C003C003C19
:1053E000003C003C003CF83DFE3F3E3F1F3E0F3C72
:1053F0000F3C0F3C0F3C0F3C0F3C1F3C1E3C3E3F04
:10540000FC3FF03B00000000000000000000000036
:1054100000000000000000000000FE03FF0F871FD7
:10542000003E003E003C007C007C007C003C003ED6
:10543000003E871FFF0FFE03000000000000000079
:1054400000001F001F001F001F001F001F00FF079C
:10545000FF1F3F3E1F3C1F7C1F7C1F7C1F781F7857
:105460001F7C1F7C3F3C7F3EFF1FDF0F00000000C2
:10547000000000000000000000000000000000002C
:105480000000F803FC0F3E1F1E3E1F3C1F7CFF7FE9
:10549000FF7F007C007C003C003E071FFF0FFE03E7
:1054A00000000000000000000000FF01E103C00355
:1054B000C007C007C007FF7FFF7FC007C007C00746
:1054C000C007C007C007C007C007C007C007C007A4
:1054D000C007C0070000000000000000000000003E
:1054E00000000000000000000000EF07FF1F7F3EEB
:1054F0001F3C1F7C1F7C1F781F781F781F7C1F7C20
:105500003F3C7F3EFF1FDF0F1E001E001E007C3849
:10551000F83F003C003C003C003C003C003CFC3DB3
:10552000FE3F9E3F1F3F1F3E1F3C1F3C1F3C1F3C3A
:105530001F3C1F3C1F3C1F3C1F3C1F3C0000000049
:10554000000000000000F001F00100000000000079
:105550000000E07FE07FE001E001E001E001E00128
:10556000E001E001E001E001E001E001E001E00133
:1055700000000000000000000000F800F80000003B
:10558000000000000000F83FF83FF800F800F800C5
:10559000F800F800F800F800F800F800F800F8004B
:1055A000F800F800F800F800F000F071E07F003C2F
:1055B000003C003C003C003C003C1F3C3E3C7C3C32
:1055C000F83CF03DE03DC03FC03FE03FF03DF83CDF
:1055D0007C3C3E3C1F3C1F3C0000000000000000E3
:1055E0000000F07FF001F001F001F001F001F001A6
:1055F000F001F001F001F001F001F001F001F00123
:10560000F001F001F001F001F001F00100000000F4
:10561000000000000000000000000000000000008A
:1056200000009EF7FFFFFFFFFFFFE7FBE7F9C7F171
:10563000C7F1C7F1C7F1C7F1C7F1C7F1C7F1C7F1AA
:10564000000000000000000000000000000000005A
:10565000000000000000FC3DFE3F9E3F1F3F1F3E3C
:105660001F3C1F3C1F3C1F3C1F3C1F3C1F3C1F3C62
:105670001F3C1F3C00000000000000000000000074
:1056800000000000000000000000F007FC1F3E3E8C
:105690001F3C1F7C0F780F780F780F780F781F7CD6
:1056A0001F3C3E3EFC1FF007000000000000000011
:1056B0000000000000000000000000000000F83DB5
:1056C000FE3F3E3F1F3E0F3C0F3C0F3C0F3C0F3C4C
:1056D0000F3C1F3C1E3E3E3FFC3FF83F003C003C61
:1056E000003C003C003C0000000000000000000006
:1056F0000000EE07FE1F7E3E1E3C1E7C1E781E78BC
:105700001E781E781E781E7C3E7C7E3EFE1FDE0FBD
:105710001E001E001E001E001E00000000000000F3
:105720000000000000007F1FFF1FE71FC71F871F2B
:10573000001F001F001F001F001F001F001F001F71
:10574000001F001F0000000000000000000000001B
:1057500000000000000000000000FC07FE1F0E1EFD
:10576000003E003E003FE01FFC07FE003E001E0022
:105770001E003E3CFC3FF01F000000000000000047
:105780000000000000000000800780078007FF7F06
:10579000FF7F8007800780078007800780078007DA
:1057A000800780078007C007FF03FF01000000009B
:1057B00000000000000000000000000000000000E9
:1057C00000001E3C1E3C1E3C1E3C1E3C1E3C1E3C63
:1057D0001E3C1E3C1E3C3E3C7E3CFE3EFE1FDE0F41
:1057E00000000000000000000000000000000000B9
:1057F00000000000000007F00F780F781E3C1E3CF0
:105800001E3E3C1E3C1E780F780FF00FF007F0078D
:10581000E003E003000000000000000000000000C2
:105820000000000000000000000003F0E3F1E3F3DB
:10583000E7F3F7F3F7F3F77F777F7F7F7F7F7F7F54
:105840003E3E3E3E3E3E3E3E000000000000000068
:1058500000000000000000000000000000000F7CBD
:105860001E3E3C3E3C1FF80FF007F007E003F00738
:10587000F807F80F7C1E3E3E1F3C1F78000000001A
:105880000000000000000000000000000000000018
:10589000000007F80F780F7C1E3C1E3C3C1E3C1E8F
:1058A0003C1F780FF80FF007F007E003E003C00398
:1058B000C003C0038007800F007F000000000000CD
:1058C000000000000000FF3FFF3F1F003E007C0083
:1058D000F800F001E003C007800F001F001E003C2D
:1058E000FF7FFF7F00000000000000000000FE01BD
:1058F000E003C003C003C003C003E001E001E00116
:10590000C001C003803F803FC003C001E001E0014F
:10591000E001C003C003C003C003E003FE017E003A
:105920000000C001C001C001C001C001C001C00130
:10593000C001C001C001C001C001C001C001C0015F
:10594000C001C001C001C001C001C001C001C0014F
:10595000C001C0010000C03FE003E001E001E00140
:10596000E001C001C003C003C001E001FE00FE0071
:10597000E001C001C003C003C001E001E001E0019B
:10598000E001E003C03F003F000000000000000015
:105990000000000000000000000000000000000007
:1059A000073FC77FE773FFF17EF0000000000000B3
:1059B00000000000000000000000000000000000E7
:1059C00000000000000001020304060708090000AF
:1059D0004C5555555555A53F7751C1166CC156BF0D
:1059E0009015CB19A001FA3EAD529C804F7E92BE1D
:1059F000C4B1B4BD9EEE213ED43888BEE9FAA8BD3C
:105A000000004054FB21F93F3163621A61B4D03D7C
:105A10000000601A61B4D03D7370032E8A19A33B55
:105A20000000002E8A19A33BC14920259A837B39A7
:105A300000000000000000006E83F9A22915444E0A
:105A4000D15727FCC0DD34F5999562DB4190433C8A
:105A5000AB6351FE61C5BBDE3A6E24B7E0D24D4266
:105A6000EA2E49061C92D1091CEB1DFE3EA729B166
:105A7000F53582E88444BB2E26709CE9417E5FB4F4
:105A800039D69139F43953838B5F849C3B28F9BD17
:105A9000FF97F81F0F9805DE8B112FEF1F6D0A5A25
:105AA000CF7E366DB709CB27663F464F2DEA5F9E06
:105AB000C7BA27757BF1E5EBF739073DEA92528AC1
:105AC000B15FFB6B085D8D1FA6F810111111813FAE
:105AD000D561C119A0012ABF7DFEB157E31DC73EA4
