:020000040800F2
:1000000060070020310200080B1A0008C31800081E
:10001000091A0008ED0700080D2000080000000084
:100020000000000000000000000000005D1F00084C
:10003000EF070008000000000D1A00085F1F00080D
:100040004B0200084B0200084B0200084B0200085C
:100050004B0200084B0200084B0200084B0200084C
:100060004B0200084B0200084B0200084B0200083C
:100070004B0200084B0200084B0200084B0200082C
:100080004B0200084B0200084B0200084B0200081C
:100090004B0200084B0200084B0200084B0200080C
:1000A0004B0200084B0200084B0200084B020008FC
:1000B0004B0200084B0200084B0200084B020008EC
:1000C0004B0200084B0200084B0200084B020008DC
:1000D0004B0200084B0200084B0200084B020008CC
:1000E0004B0200084B0200084B0200084B020008BC
:1000F0004B0200084B0200084B0200084B020008AC
:100100004B0200084B0200084B0200084B0200089B
:100110004B0200084B0200084B0200084B0200088B
:100120004B0200084B0200084B0200084B0200087B
:100130004B0200084B0200084B0200084B0200086B
:100140004B0200084B0200084B0200084B0200085B
:100150004B0200084B0200084B0200084B0200084B
:100160004B0200084B0200084B0200084B0200083B
:100170004B0200084B0200084B0200080000000080
:100180004B0200084B02000800F002F800F041F8B2
:100190000AA090E8000C82448344AAF10107DA45E2
:1001A00001D100F036F8AFF2090EBAE80F0013F0F3
:1001B000010F18BFFB1A43F0010318476C3300000E
:1001C0008C330000103A24BF78C878C1FAD852079F
:1001D00024BF30C830C144BF04680C6070470000C1
:1001E0000023002400250026103A28BF78C1FBD840
:1001F000520728BF30C148BF0B607047642900F028
:10020000C380002070471FB501F0A0FF1FBD10B5CF
:1002100010BD00F022FA1146FFF7F5FF01F00EFFC6
:1002200000F040FA03B4FFF7F2FF03BC00F044FA19
:100230000948804709480047FEE7FEE7FEE7FEE77A
:10024000FEE7FEE7FEE7FEE7FEE7FEE704480549B6
:10025000054A064B70470000FD1F00088901000891
:100260006001002060070020600300206003002080
:1002700053EA020C00F069802DE9F04B4FF00006C4
:10028000002B1FBFB3FA83F503FA05F424FA05F631
:100290005E4012BF1643B2FA82F502FA05F4C5F1C8
:1002A00020051EBF22FA05FC44EA0C04203556EA5C
:1002B000044C4FEA144418BF641C4FF000084FF080
:1002C0000009904271EB030C39D3002919BFB1FA30
:1002D00081F701FA07F6B0FA80F700FA07F6C7F1DE
:1002E00020071EBF20FA07FC46EA0C062037B6FBA3
:1002F000F4FCA7EB0507103F07F01F0BCBF120061E
:100300000CFA0BFB2CFA06F644BFB3460026202F4E
:10031000A4BF5E464FF0000B5BEA060C08BF4FF02F
:10032000010B19EB0B09ABFB027C48EB0608C01B69
:1003300006FB02CC0BFB03CC71EB0C01C1E70B46B7
:10034000024641464846BDE8F08B13B54FF0000029
:100350004FF00001AFF30080BDE81C407047000083
:100360000FB41CB5074B06AA7B446946009005985C
:1003700000F055F90020694600F064F91CBC5DF8F6
:1003800014FB0000D90200002DE9F04106460024CC
:1003900010687529314616A510D0AFF300800028EB
:1003A00002DA404213A507E031688A0701D512A599
:1003B00002E0490704D511A5012401E0AFF3008054
:1003C00000210A2206F1240709E0B0FBF2FCB0FB91
:1003D000F2F302FB1C00303078541846491C002808
:1003E000F3D123462A463046BDE8F04100F0B9B8C3
:1003F000000000002D0000002B0000002000000085
:100400002DE9F0474FF0000A89460446C0F820A0C5
:100410002046E1688847002876D0252806D0D4E910
:1004200001219047206A401C2062F1E7E1682046E4
:1004300000258847C4F81CA006460027C4F818A069
:100440002A2E09D0304601F0F2FD38B304EB8708BC
:10045000303EC8F8186019E059F8041B204604EB38
:1004600087029161E1688847012F064618D1E0694B
:10047000002820DA25F020051DE0D8F8180000EB50
:10048000800006EB40003038C8F818002046E168CC
:100490008847064601F0CBFD0028EED1012F0AD097
:1004A0002E2E08D12046E16888477F1C0646022F81
:1004B00045F02005C4DBA069002803DA404245F07E
:1004C0000105A061E80701D025F01005B6B1A6F13D
:1004D0004100192802D8203645F400654A463146C5
:1004E000204625604D46FFF789FE58B1012806D009
:1004F000ED1D25F0070000F1080989E704E005F18A
:10050000040985E730468AE7206ABDE8F0874FF0A6
:10051000000200B5134694469646203922BFA0E853
:100520000C50A0E80C50B1F12001BFF4F7AF09075F
:1005300028BFA0E80C5048BF0CC05DF804EB890050
:1005400028BF40F8042B08BF704748BF20F8022B93
:1005500011F0804F18BF00F8012B704770477047AB
:1005600070472DE9F0470D4699469246044600F142
:1005700024080168880604D5E06921F01001216093
:1005800000E00120A84201DD471B00E00027A1692F
:100590007A1902EB0900081AA0612078C00602D47B
:1005A0002046AFF30080002608E0D4E901211AF8C4
:1005B00006009047206A401C761C20624E45F4DB02
:1005C0002078C0060AD52046AFF3008006E0D4E9C3
:1005D000012130209047206A401C2062381EA7F17C
:1005E0000107F4DC07E0D4E9012118F80500904781
:1005F000206A401C2062281EA5F10105F3DC20467C
:10060000AFF300802078000602D50220BDE8F08715
:100610000120FBE701694A1C02610878704700B5B8
:100620008FB0CDE901310021059105497944CDE92B
:10063000031011466846FFF7E3FE0FB000BD00004F
:10064000E5FFFFFF0A6802F8010B0A60704700002F
:10065000004870470001002070477546FFF7F8FF1B
:10066000AE4605006946534620F00700854618B09F
:1006700020B5FFF7EBFDBDE820404FF000064FF03E
:1006800000074FF000084FF0000B21F00701AC46C7
:10069000ACE8C009ACE8C009ACE8C009ACE8C009E6
:1006A0008D46704710B50446AFF300802046BDE884
:1006B0001040FFF7B7BD000001491820ABBEFEE7B0
:1006C00026000200464910B54A6822F440324A60CA
:1006D0004A6843681A434A6001684A6822F4807293
:1006E0004A6001684A68036942EA03224A60016875
:1006F0004A6822F040724A6001684A6883681A4377
:100700004A6001688A6822F400628A6001688A6827
:10071000C3681A438A60816A6FF07062D1420168CF
:100720008A6822F070628A6001688A680CD0836AE5
:100730001A438A6001688A6822F040528A60016820
:100740008A68C36A1A4301E022F040528A60016855
:100750008A6822F002028A6001688A68037E42EA9F
:1007600043028A6090F82010002901684A680FD07F
:1007700042F400624A6001684A6822F460424A60BA
:1007800001684A68174C436A04EB43331A4301E09B
:1007900022F400624A600168CA6A22F47002CA62E6
:1007A0000168CA6A838B104C04EB03531A43CA6274
:1007B00001688A6822F400728A6001688A6890F889
:1007C000303042EA43228A6001688A6822F48062FB
:1007D0008A6001688A68406942EA8020886010BDAA
:1007E0000023014000E0FFFF0000F0FFFEE770473C
:1007F00072B6FEE778B50024009490F83C20012AF8
:1008000019D0012280F83C200A6807230568092ACC
:1008100013D9EE680A3A02EB420293409E43EE601F
:100820000B788A680A3B03EB43039A400368DD6850
:100830002A43DA6010E0022078BD2E6902EB420202
:1008400093409E432E610B788A6803EB43039A40E2
:1008500003681D692A431A614A681F23072A13D2B5
:1008600005686E6B521E02EB820293409E436E63DC
:100870000B790A885B1E92B203EB83039A400368EC
:100880005D6B2A435A6327E005680D2A12D22E6B4E
:10089000D21F02EB820293409E432E630B790A889B
:1008A000DB1F92B203EB83039A4003681D6B2A435C
:1008B0001A6311E0EE6A0D3A02EB820293409E4306
:1008C000EE620B790A880D3B92B203EB83039A40E8
:1008D0000368DD6A2A43DA62164B0568144A9D42B2
:1008E00006D10D68122D03D1556845F48005556079
:1008F00005689D4218D10B68102B01D0112B13D124
:10090000536843F400035360096810290CD10A4965
:100910000A4A0968B1FBF2F101EB8101490000E0EC
:10092000491E00910029FBD180F83C40002078BD91
:1009300000230140002001402800002040420F0019
:1009400070B504004FF0000503D0206C002610B1F4
:1009500007E0012070BD204600F01CF8666484F8B2
:100960003C60206CC00610D4206C20F4885040F00D
:10097000020020642046FFF7A5FE6664206C20F08C
:10098000020040F00100206400E0012584F83C6092
:10099000284670BD08B500680649884208D1064857
:1009A000016841F480710160006800F4807000907B
:1009B00008BD0000002001404438024070B50446E4
:1009C00000F010F90546601C02D004480078044489
:1009D00000F008F9401BA042FAD370BD1C000020B3
:1009E0002DE9F84FDFF8BCA1002201250AF1040B24
:1009F00003264FF00F090BF1040E00BF0B6805FA38
:100A000002F42340A34270D10F7907F00307012FAE
:100A100001D0022F16D187684FEA420806FA08FC77
:100A200027EA0C07D1F80CC00CFA08FC4CEA070CBA
:100A3000C0F808C04768A7430C79C4F30014944079
:100A40003C4344600C79E443A4070AD0C4684FEAED
:100A5000420C06FA0CF7BC438F6807FA0CF72743E1
:100A6000C7600C7904F00304022C12D1D40800EB07
:100A7000840CDCF820405707FF0E09FA07F824EA37
:100A80000804D1F8108008FA07F848EA0408CCF8FE
:100A9000208004684FEA420C06FA0CF7BC430F7939
:100AA00007F0030707FA0CF7274307604C6814F4B4
:100AB000403F70D03C4C276847F48047276024684B
:100AC00022F0030704F480440094384C07EB040C34
:100AD000DCF8084897074FEA177809FA08F7BC438B
:100AE000334FB84202D1002724E054E0314FB842DE
:100AF00001D101271EE0304FB84201D1022719E091
:100B00002E4FB84201D1032714E02D4FB84201D136
:100B100004270FE02B4FB84201D105270AE02A4FE6
:100B2000B84201D1062705E0284FB84201D1072776
:100B300000E0082707FA08F72743CCF80878DAF826
:100B400000405746D1F804C09C435FEACC3C00D536
:100B50001C433C60DBF800405F46D1F804C09C4376
:100B60005FEA8C3C00D51C433C60DEF800407746D1
:100B7000D1F804C09C435FEACC2C00D51C433C60F8
:100B8000084F0C373C68D1F804C09C435FEA8C2CBA
:100B900000D51C433C60521C102AFFF42FAFBDE867
:100BA000F88F0000003C0140443802400030014012
:100BB000000002400004024000080240000C024015
:100BC000001002400014024000180240001C0240C5
:100BD0000069084000D0012070470AB18161704768
:100BE0000904FBE701488068704700001C000020F2
:100BF0000248816802781144816070471C0000201F
:100C00000B4810B5016841F400710160016841F4BE
:100C100080610160016841F480710160032000F08F
:100C200061F80F2000F006F800F024F8002010BD55
:100C3000003C024070B50D4D04464FF47A7128789F
:100C4000B1FBF0F00A490968B1FBF0F000F025FEB5
:100C500048B9102C07D200222146501E00F022F87D
:100C600000206C6070BD012070BD00001C000020E1
:100C7000280000200A4808B5016841F4804101605D
:100C8000006800F4804000900548001F016841F0B2
:100C900080510160006800F08050009008BD0000A5
:100CA00044380240F0B40E4B1B680C46C3F30223D9
:100CB000C3F10705042D00D90425191D072901D208
:100CC000002300E0DB1E012606FA05F1491E214043
:100CD00099409E40761E16403143F0BC01F097B912
:100CE0000CED00E0064900F0070208684FF6FF032C
:100CF000184040EA0220034A104308607047000091
:100D00000CED00E00000FA052DE9F8430546006807
:100D10004FF00109C1074FF0000601D1400727D568
:100D2000DFF80C81C8F86860FFF75CFF0746414CAC
:100D300005E000BFFFF756FFC01B022857D8206808
:100D40000001F7D468688101287A41EA00703949C6
:100D500084310860C8F86890FFF744FF074604E054
:100D6000FFF740FFC01B022841D820680001F7D5DB
:100D70002878800752D52F484030016841F08051D3
:100D8000016000682C4C00F080500090206840F416
:100D900080702060FFF726FF074604E0FFF722FF80
:100DA000C01B022823D82068C005F7D5214C703419
:100DB000206810F4407020D0A98901F4407181426C
:100DC0001BD020681D4920F44070C1F800900E60CF
:100DD00020602068C00710D0FFF704FF064641F2EC
:100DE000883707E0FFF7FEFE801BB84202D90320D8
:100DF000BDE8F88320688007F4D5E9680D48C1F3A1
:100E000001220830032A0BD0016821F4F811016097
:100E10002068A989C1F30B01084320600020E7E79F
:100E20000268074B22F4F81219400A430260EFE708
:100E3000000047420038024000700040400E474228
:100E4000FFFCFF0F2DE9F0470E46050065D0DFF8E7
:100E50001481D8F80000F7B200F00700B04207D2C2
:100E600088F80070D8F8000000F00700B04254D1B4
:100E700028683D4C810712D5400703D5206840F40F
:100E8000E05020602878000703D5206840F46040D7
:100E900020602068A96820F0F000084320602878CE
:100EA000C0072DD0304968680839012812D00228BF
:100EB00013D0032811D00968890700292DDA216889
:100EC00021F0030101432160FFF78CFE814641F2CE
:100ED000883A0EE009688903EFE709688901ECE7C1
:100EE000FFF780FEA0EB0901514502D90320BDE8C0
:100EF000F0872068696800F00C00B0EB810FEFD13B
:100F0000D8F80010404601F00701B14207D9077038
:100F1000006800F00700B04201D00120E7E7287820
:100F2000400705D52068E96820F4E05008432060B8
:100F30002878000706D52068296920F4604040EA37
:100F4000C100206000F018F82168084AC1F30311BD
:100F5000515CC8400649086006480068FFF76AFE11
:100F60000020C4E7003C0240083802401635000863
:100F70002800002020000020154810B5006810F05F
:100F80000C02144813D04110042A0FD0082A0ED1A5
:100F90000F4C241F2268236802F03F025B0207D532
:100FA0002068C0F38810A0FB010106E0084610BDD0
:100FB0002168C1F38811A1FB00010023FFF758F954
:100FC0002168C1F30141491C4900B0FBF1F010BD9B
:100FD000083802400024F4002DE9F84F04006ED0D8
:100FE0002078DFF84C93C007A9F104054AD009F135
:100FF00004000168C1F38101012908D00068C0F331
:10100000810002280AD1D9F80000400206D52868DC
:10101000800337D560680028E1D033E06068B0F520
:10102000803F10D0B0F5A02F286810D020F4803079
:101030002860286820F4802028606068A8B1FFF745
:10104000D1FD06460DE0286840F48030F4E740F416
:1010500080202860F7E700BFFFF7C4FD801B6428ED
:1010600073D828688003F7D50CE0FFF7BBFD064670
:1010700005E000BFFFF7B6FD801B6428F0D82868A4
:101080008003F7D42078DFF8AC8280074FF0000AA5
:101090003ED5A748001D016811F00C0F08D000686C
:1010A000C0F3810002280BD1D9F80000400207D418
:1010B0002868800716D5E068012800D112E033E1E6
:1010C000E068B8B10120C8F80000FFF78BFD0646C4
:1010D00005E000BFFFF786FD801B0228C0D8286806
:1010E0008007F7D52868216920F0F80040EAC100A0
:1010F00028600DE0C8F800A0FFF774FD064604E084
:10110000FFF770FD801B02281FD828688007F7D4DE
:101110002078000722D5864F87486169703771B102
:1011200001210160FFF75EFD064604E0FFF75AFD6E
:10113000801B022809D838688007F7D50EE0C0F870
:1011400000A0FFF74FFD064605E082E0FFF74AFDED
:10115000801B02287DD838688007F7D420784007A4
:1011600068D5DFF8CCB100270BF13C0BDBF80000B1
:10117000C0000BD4DBF8001041F08051CBF8001018
:10118000DBF80000012700F0805000906B4E3068C3
:10119000C00510D4306840F480703060FFF722FD45
:1011A000009005E0FFF71EFD0099401A022850D874
:1011B0003068C005F6D55E4EA0686C3601280FD0A9
:1011C0000528306810D020F001003060306820F031
:1011D00004003060A068B8B1FFF704FD00900FE094
:1011E000306840F00100F4E740F004003060F7E7B9
:1011F000FFF7F8FC0099411A41F28830814266D825
:1012000030688007F4D50EE0FFF7ECFC009007E0B3
:10121000FFF7E8FC0099411A41F28830814256D824
:1012200030688007F4D42FB1DBF8001021F0805132
:10123000CBF80010A069C8B33D49091D0968C1F386
:10124000810102294AD00228504607D0C8F8600020
:1012500000E03CE0FFF7C6FC04463BE04746C8F828
:101260006000FFF7BFFC064605E000BFFFF7BAFCD1
:10127000801B02282BD828688001F7D4D4E9070105
:101280000843A16A2E4A490802EB0141626A41EA19
:101290008211084394F82C1040EA0161C9F800104B
:1012A00001203866FFF79EFC044606E03EE000BFE2
:1012B000FFF798FC001B022809D828688001F7D5A1
:1012C00034E000BFFFF78EFC001B022802D9032088
:1012D000BDE8F88F28688001F4D427E00128F7D012
:1012E000D9F80000E26900F4800191421CD1226A21
:1012F00000F03F01914217D147F6C071626A014088
:10130000B1EB821F10D1A26A4FF0FF3300F44031DD
:1013100003EB5202B1EB024F06D194F82C1000F00F
:101320007060B0EB016F01D00120D1E70020CFE762
:101330000438024000004742800E474200700040DF
:101340000000FFFF10B500680B4641680D480140E2
:10135000080CD870C1F304245C7001F03F049C7049
:10136000C1F34231197052B900F051FBD87058786E
:1013700000F04DFB5870987800F049FB9870002001
:1013800010BD00003FFFFF0010B50B460168896AE1
:10139000596001680969C1F30E019960006801682C
:1013A0000E480140C1F305401870C1F306245C707B
:1013B00001F07F049C70402404EA1141D97052B9B5
:1013C00000F025FB1870587800F021FB58709878D1
:1013D00000F01DFB9870002010BD00007F7F7F0093
:1013E00070B5040002D0607F10B106E0012070BD2E
:1013F00000202077204600F049F80220607721681D
:10140000CA204862216853204862204600F014FB3D
:10141000FF25042618BB206881681B4A11408160A3
:101420002168886862681043D4E904231A43104392
:1014300088602168E068086120680169228941EAC2
:10144000024101612068C16821F08001C16020680B
:101450008068800607D4204600F0AAF818B12068FA
:1014600045626677C2E72068016C21F4802101643F
:101470002068016CA2691143016420684562012063
:101480006077002070BD0000BFFF8FFF1FB50021F7
:1014900000910191029103910068084988420CD1A2
:1014A00002200090C00103906846FFF72DFC08B1B0
:1014B000FFF79EF90249012008601FBD0028004087
:1014C0003C0E47422DE9F0470446007F0D460128B7
:1014D00027D04FF0010A84F81CA002206077206812
:1014E000002680684FEA4060F2B1002800DBEE7011
:1014F000A878297840EA01476878E978000240EA4C
:10150000014007432168CA2048622168532048628D
:10151000204600F091FA4FF0FF084FF00409A0BBFD
:1015200016E00220BDE8F087002800DBEE70287886
:1015300000F076FA0204687800F072FA42EA0022BB
:10154000A87800F06DFA0243E87842EA0047D9E74C
:1015500016480740206807602068816821F48021D0
:101560008160D5E90301084321688A6810438860D7
:101570002068C16821F08001C16020688068800611
:101580000BD4204600F014F838B12168C1F824804B
:1015900084F81D9026770120C4E72168C1F82480D3
:1015A00084F81DA026770020BCE700007F7F7F0025
:1015B00070B504460068C16821F0A001C160FFF762
:1015C00011FB05464FF47A7607E000BFFFF70AFBF0
:1015D000401BB04201D9032070BD2068C06880065E
:1015E000F4D5002070BD70B5040009D0606A0025F4
:1015F00040B125616561A56294F8510040B10CE0ED
:10160000012070BD6068B0F5827FF4D0E561F2E73B
:1016100084F85050204600F045F8022084F851002C
:101620002068016821F040010160A088218900F450
:10163000827001F404410843A18901F40061084368
:10164000217C01F002010843217D01F001010843E2
:10165000218B01F400710843217F01F03801084318
:1016600094F8201001F080010843218D01F400510D
:10167000084321680860A069042101EA104094F839
:10168000241001F010010843216848602068C169F6
:1016900021F40061C1616565012084F851000020DA
:1016A00070BD0000F0B587B0044614216846FEF70F
:1016B0002EFF1C492068884232D11B480024016853
:1016C00041F480410160006800F4804005901648B4
:1016D0001038016841F004010160016801F0040163
:1016E0000591016841F0020101600068022500F0E7
:1016F000020005900C20CDE9000502AA032605276B
:1017000082E8D00069460948FFF76AF96802CDE926
:10171000000502AA694682E8D0000548FFF760F993
:1017200007B0F0BD003800404038024000080240D9
:10173000000402402DE9F84F044690F850000027BD
:101740001D461646894601280DD04FF0010B84F83E
:1017500050B0FFF747FA804694F85100BA46012886
:1017600004D0022793E00220BDE8F88FB9F1000F02
:1017700073D0002E71D0032084F85100C4F854A017
:10178000C4F83090A686E686C4F838A0A4F83CA039
:10179000A4F83EA0C4F844A0C4F840A0A068B0F5E6
:1017A000004F09D12068016821F0400101602068E4
:1017B000016841F48041016020680168490603D452
:1017C000016841F040010160E068B0F5006F6068B9
:1017D00003D030B3012E24D041E008B1012E1CD13A
:1017E000206B21680088C86006E02068816889074E
:1017F00009D5216B0988C160206B801C2063E08EB5
:10180000401EE08609E0FFF7EDF9A0EB0800A842D2
:1018100002D3681C01D031E07DB3E08E0028E4D112
:1018200020E0206B21680078087306E0206881685A
:10183000890709D5216B09780173206B401C20634F
:10184000E08E401EE0860AE0FFF7CCF9A0EB08002E
:10185000A84203D3681C02D010E017E06DB1E08EFF
:101860000028E3D142462946204600F003F908B19A
:1018700020206065A06818B106E0FFE7032706E0B6
:101880002068C16880680090606D00B1012784F80D
:1018900051B084F850A0384666E710B5401EB0F14C
:1018A000807F01D3012010BD4FF0E02460610F2143
:1018B000601700F0ACFB0020A06107202061002031
:1018C00010BDFEE77FB500241548009401940294F2
:1018D0001249039401604FF44031C0E901140461DE
:1018E000047680F820400F49C0E90A140125C5613B
:1018F000C46080F830404561FFF722F808B172B645
:10190000FEE71020CDE90005694602940448FEF781
:1019100071FF002801D072B6FEE77FBD00200140B4
:10192000980000200100000F70B586B014216846B1
:10193000FEF7EDFD22480024016841F0040101603A
:10194000016801F004010591016841F08001016026
:10195000016801F080010591016841F0100101600A
:10196000016801F010010591016841F00201016078
:10197000016801F002010591016841F00101016077
:101980000068104E00F001004FF4706505900022D1
:1019900029463046FFF721F90220CDE902400095A3
:1019A0000125694601953046FFF71AF818208DE8A1
:1019B000310069463046FFF713F806B070BD0000ED
:1019C00030380240001002400E4810B50C4901604A
:1019D0004FF48271416000218160C1604FF4007258
:1019E0000161C0E90512C1610162416281620A219F
:1019F000C162FFF7F8FD002801D072B6FEE710BD06
:101A00000038004040000020FEE7FEE77047010973
:101A100001EB810100F00F0000EB4100C0B2704704
:101A2000002102E00A38C0B2491C0A28FAD209078C
:101A300040EA11607047000070B504460068C16854
:101A4000490614D44FF0FF31C160FFF7CBF80546CB
:101A50004FF47A7607E000BFFFF7C4F8401BB042AE
:101A600001D9032070BD2068C0684006F4D500206D
:101A700070BD000038B504461248134B0068B0FB37
:101A8000F3F04FF47A73584300906068B0F5827FAA
:101A90000DD10B46009200228021204600F016F85E
:101AA00070B1606D40F020006065032038BD009883
:101AB00030B1401E009020688068C0430006F6D513
:101AC000002038BD2800002000366E012DE9F843C3
:101AD0001E46914688460446089DFFF783F8401B42
:101AE000351AFFF77FF8074625480068C0F3CB306A
:101AF000684338E0701C37D0FFF774F8C01BA84269
:101B000003D215B1009860B32CE02068416821F041
:101B1000E00141606068B0F5827F0BD1A068B0F54C
:101B2000004F02D0B0F5806F04D12068016821F029
:101B300040010160A06AB0F5005F09D1206801682A
:101B400021F4005101602068016841F400510160F6
:101B5000012084F85100002084F850000320BDE8E3
:101B6000F8830025401E00902068816838EA010053
:101B700004D000214945BDD10020F0E70121F9E75B
:101B8000280000202DE9FE4FDFF874B014460E4601
:101B900005464FF4807A9846002251465846FFF792
:101BA0001CF8DFF8609008F0FF071EE0B9F9063076
:101BB000791999420BDBC8F307218B199EB2B9F949
:101BC000040000253144814212DA202A0CD0DDE9DC
:101BD0000D01CDE901010C9800904346314628469D
:101BE00000F04AF9781985B2641C2278002ADDD108
:101BF00003B051465846BDE8F04F0122FEF7EDBF55
:101C000000100240000000202DE9F04110F8015BB7
:101C1000044617E0207800F077F96078A41C00F003
:101C2000200730F0200604D03146204600F080F92D
:101C300034443FB114F8010BFF2801D14FF4FA707E
:101C4000FEF7BCFE6D1EEDB2E4D2BDE8F0810000EF
:101C50002DE9F84F074629480E46DDF82880B0F9EF
:101C600006101C4615468F4246DAB0F9040086423B
:101C700042DA7A19521E8A4201DBC91B8DB2311930
:101C8000491E814201DB801B84B2DFF874904FF45F
:101C9000807A002251464846FEF79FFF3019401EC9
:101CA000C3B27819401EC2B2F1B2F8B200F068F8BF
:101CB0004FEA18208DF8000001228DF80180910272
:101CC0004846FEF78AFF26464FF0FF370DE02C46C8
:101CD00007E03B46022269460A48FFF72BFD641ED7
:101CE000A4B2002CF5D1761EB6B2002EEFD101229F
:101CF00051464846FEF771FFBDE8F88F000000200E
:101D0000001002404000002008B50090044881887F
:101D1000C0888BB282B200210846FFF799FF08BD48
:101D20000000002070B5144D4FF48074002221464D
:101D30002846FEF752FF6600002231462846FEF78D
:101D40004CFF1420FEF73AFE012231462846FEF7EA
:101D500044FF0A48FFF758FF08483B30FFF754FF9D
:101D600006484830FFF750FF21462846BDE870403E
:101D70000122FEF732BF0000001002405621000889
:101D8000F8B504461D4616460F462A2000F0BCF85A
:101D90002146104C00200090607801448DF801101D
:101DA00030448DF803000421684600F0C1F82B2070
:101DB00000F0AAF8A07839188DF8011028448DF8A1
:101DC00003000421684600F0B3F82C2000F09CF8D2
:101DD000F8BD0000000000202DE9F843244C00F07D
:101DE0000300DFF8909020704FF480780022414685
:101DF0004846FEF7F2FE362000F086F821780025EE
:101E0000802604F10800A02731B101290CD0022955
:101E100015D003290CD11CE001784278C078114319
:101E200001438DF800100DE0417813E06570A57056
:101E300041464846BDE8F8430122FEF7CEBEC078D1
:101E40008DF800000121684600F072F8E680A78056
:101E5000ECE701788278C078114301438DF80010D7
:101E60000121684600F064F8E780A680DEE7000004
:101E700000000020001002400FB42DE9FF5F4A1E51
:101E8000C3F307263244D4B2DFB2421EDDE913A900
:101E90003A44D2B2C9B2C0B22346FFF771FF00255F
:101EA0002CE01098203810FB06501299002409F0FD
:101EB000FF0B31F810804FEA1A2002900AF0FF0061
:101EC00001904FEA1920009015E000BF08FA04F0D5
:101ED000000406D502988DF80C0001988DF80D00CD
:101EE00004E000988DF80C008DF80DB0022103A8D5
:101EF00000F01EF8641CA742E8D86D1CAE42D0D892
:101F0000BDE8FF1F5DF814FB01B500224FF48061AE
:101F10000548FEF762FE4FF0FF3301226946034891
:101F2000FFF708FC08BD0000001002404000002040
:101F300070B50D460446012291020648FEF74DFE9B
:101F4000AAB22146BDE870404FF0FF330248FFF7C8
:101F5000F1BB000000100240400000207047FEF777
:101F600047BE000030B593B030216846FEF7CFFA87
:101F700014210CA8FEF7CBFA1E480025016841F099
:101F800080510160006800F0805011901A4801688B
:101F900041F4804101600068022400F48040119007
:101FA000052000904FF480300190012002908005C0
:101FB000CDE9064008AA0420A02182E813000B9076
:101FC0006846FFF709F808B172B6FEE70CA90F20C2
:101FD00081E831004FF4A0500F904FF480501090E2
:101FE00005210CA8FEF72EFF002801D072B6FEE7EF
:101FF00013B030BD40380240007000400248016814
:1020000041F470010160704788ED00E0FEE70907C8
:10201000090E002804DB00F1E02080F8001470476E
:1020200000F00F0000F1E02080F8141D70473038F8
:102030000A2801D2012070470020704786B0FEF7C1
:10204000DFFDFFF78FFFFFF76FFCFFF7BDFCFFF72A
:1020500039FC364834490025C0E900157F218160EC
:10206000FF21C0E9031545618561FFF7B9F908B1A2
:1020700072B6FEE7FFF756FE0120FFF7ADFE002027
:10208000FFF742FE294C2A4E2A4F4FF6FF78B43C08
:1020900026490022B4392548FFF776F9002226495F
:1020A0002248FFF74FF9A07800906378227823A1A7
:1020B00003A8FEF755F9CDE901857068009003AAE1
:1020C00050210A203368FFF75DFD08213846FEF7EE
:1020D0007FFD70B960783B2821D0401C60701349A7
:1020E000A5700022B4391148FFF7ECF99620FEF7ED
:1020F00065FC10213846FEF76BFD0028C8D120781A
:1021000018280ED0401C20700849A5700022B43950
:102110000648FFF7D7F99620FEF750FCB8E7657040
:10212000DDE72570F0E7000000280040E000002017
:102130000C0000200010024015000020252E326403
:102140003A252E32643A252E326400004FF040705A
:10215000E1EE100A70470F0120961120FFB1030134
:102160002C2DB203012C2DB306012C2D012C2DB4E6
:102170000107C003A20284C101C5C2020A00C30252
:102180008A2AC4028AEEC5010E20003601C03A0137
:1021900005022A040000007F2B040000007F04E0F9
:1021A00010021C07123732292D29252B3900010373
:1021B00010E110031D07062E2C292D2E2E373F006F
:1021C00000021013200A2920640000000000000013
:1021D00000000000000000000000000000000000FF
:1021E00000000000000000000000000000000000EF
:1021F0000000000000000000000000000000E003FC
:10220000E003E003E003E003E003E003E003C003D6
:10221000C003C001C001C001C001C0010000000036
:102220000000E003E003E003000000000000000005
:1022300000003C1E3C1E3C1E3C1E3C1E3C1E3C1E28
:10224000000000000000000000000000000000008E
:10225000000000000000000000000000000000007E
:10226000000000000000CE01CE03DE039E039C03AD
:102270009C07FF3FFF7F3807380F780F780F780EE5
:10228000FFFFFFFFF01EF01CE01CE03CE03DE039EA
:1022900000000000000000000000FC03FE0FEE1F25
:1022A000E01EE01EE01EE01EE01FE00FE007F0036E
:1022B000FC01FE01FE01FE01FE01FE01FE01FE3DEC
:1022C000FC3FF00FE001E001000000000000033ED1
:1022D00007F78FE78EE79EE3BCE3B8E7F8E7F0F790
:1022E000E03FC001FF03FF07F307F30FF31EF33CCA
:1022F000F338F3787FF03FE00000000000000000BA
:102300000000E007F80F780F781F781F781F780F0C
:10231000F00FE00F801FC37FC3FBE7F3F7F1F7F087
:10232000FFF07FF03EF87F7CFF3FEF1F00000000D2
:10233000000000000000E003E003E003E003E0032E
:10234000C003C00100000000000000000000000009
:10235000000000000000000000000000000000007D
:10236000000000000000000000003F007C00F001C1
:10237000E001C003C00780078007800F000F000F37
:10238000000F000F000F000F800F80078007C007AD
:10239000C003E001F0017C003F000F000000007E60
:1023A000001FC007C003E001F001F000F000F800DA
:1023B000780078007800780078007800F800F00065
:1023C000F000F001E001C003C007001F007E0078AC
:1023D0000000E003C003C001CE39FF3F7F3F200370
:1023E0007003F807780F3C1F38060000000000005B
:1023F00000000000000000000000000000000000DD
:1024000000000000000000000000000000000000CC
:102410000000C001C001C001C001C001C001C00175
:10242000FFFFFFFFC001C001C001C001C001C0012A
:10243000000000000000000000000000000000009C
:10244000000000000000000000000000000000008C
:10245000000000000000000000000000E003E003B6
:10246000E003E003E001E001E001C00180030000BF
:10247000000000000000000000000000000000005C
:1024800000000000FE3FFE3F0000000000000000D2
:10249000000000000000000000000000000000003C
:1024A000000000000000000000000000000000002C
:1024B000000000000000000000000000000000001C
:1024C00000000000E003E003E003E0030000000080
:1024D0000000000000000F000F001E001E003C0066
:1024E0003C0078007800F000F000E001E001C0035B
:1024F000C00380078007000F000F001E001E003C75
:10250000003C0078007800F00000F007F80F7C1F16
:102510003E3E1E3C1F7C1F7C0F780F780F780F7893
:102520000F780F780F781F7C1F7C1E3C3E3E7C1F6F
:10253000F80FF00700000000000000000000F000AD
:10254000F007F03FF03FF001F001F001F001F00181
:10255000F001F001F001F001F001F001F001F001F3
:10256000F001F001FF3FFF3F00000000000000000D
:102570000000E00FF83F7C3C3C003E003E003E0087
:102580003C003C007C00F800F001E003C00780073D
:10259000000F001E003E003CFE3FFE3F000000001A
:1025A000000000000000F00FF81F7C1C3E003E0001
:1025B0003E003C003C00F800F00FF80F7C003E00AD
:1025C0001E001E001E001E003E007C1CF81FE01FA7
:1025D000000000000000000000007800F800F80093
:1025E000F801F803F807F807780F781E781E783C92
:1025F00078787878FFFFFFFF78007800780078001F
:102600007800780000000000000000000000FC1FBF
:10261000FC1FFC1F001E001E001E001E001EE01FEF
:10262000F81FFC007C003E003E001E003E003E0005
:102630003C007C1CF81FE01F0000000000000000B0
:102640000000FC01FE078E0F001F001E003E003C34
:10265000003CF83DFC3F3E7F1F7E0F3C0F3C0F3C93
:102660000F3C0F3E1F1E3E1FFC0FF003000000003A
:10267000000000000000FF3FFF3FFF3F0F001E0073
:102680001E003C0038007800F000F000E001E0019E
:10269000C003C0038007800F800F000F001F001FC2
:1026A00000000000000000000000F807FC0F3E1FC3
:1026B0001E1E1E3E1E3E1E1E3C1FF80FF007F80F8A
:1026C000FC1E3E3E1F3C1F7C0F7C0F7C1F3C3E3F90
:1026D000FC1FF00700000000000000000000F007F1
:1026E000F80F7C1E3E3C1E3C1F7C1F7C1F7C1F7C09
:1026F0001F3C3F3EFF1FEF071F001E001E003E0055
:102700003C00F838F03FE01F00000000000000002F
:102710000000000000000000000000000000E003D6
:10272000E003E003E0030000000000000000000000
:1027300000000000E003E003E003E003000000000D
:102740000000000000000000000000000000000089
:102750000000E003E003E003E003000000000000ED
:102760000000000000000000E003E003E003E003DD
:10277000E001E001E001C003800300000000000070
:1027800000000000000003000F003F00FC00F00309
:10279000C00F003F00FE003FC00FF003FC003F00F1
:1027A0000F00030000000000000000000000000017
:1027B0000000000000000000000000000000000019
:1027C0000000FFFFFFFF000000000000FFFFFFFF11
:1027D00000000000000000000000000000000000F9
:1027E000000000000000000000000000000000E009
:1027F00000F8007E801FE007F8017E001F007E00C9
:10280000F801E007801F007E00F800E000000000F3
:10281000000000000000F01FFC3F3E381F381F384A
:102820001E001E003C007800F000E001C003C00361
:10283000C007C007000000000000C007C007C007B5
:1028400000000000000000000000F803FE0F1E1F43
:102850000F3E7F3CFF78EF79C773C7F38FF38FF399
:102860008FF39FF39FF3FF73FF7BF779003C1C1FEF
:10287000FC0FF80300000000000000000000000052
:1028800000000000E003E003F007F007F007780F16
:10289000780F7C0E3C1E3C1E3E3CFE3FFF3F1F78E7
:1028A0000F780FF007F007F00000000000000000B4
:1028B0000000000000000000F83FFC3F3E3C1E3CD2
:1028C0001E3C1E3C3E3C7C3CF03FF83F7E3C1F3CA7
:1028D0001F3C0F3C0F3C1F3CFE3FF83F0000000038
:1028E000000000000000000000000000FF01FF07E2
:1028F000871F003E003C007C00780078007800785C
:102900000078007C007C003E003F831FFF07FF0132
:1029100000000000000000000000000000000000B7
:10292000F07FFC7F7E781F781F780F780F780F7804
:102930000F780F780F780F780F781F781E787E78D1
:10294000F87FE07F000000000000000000000000B1
:1029500000000000FF3FFF3F003E003E003E003E03
:10296000003E003EFE3FFE3F003E003E003E003E79
:10297000003E003EFF3FFF3F00000000000000005F
:102980000000000000000000FF1FFF1F001E001ECF
:10299000001E001E001E001EFF1FFF1F001E001E47
:1029A000001E001E001E001E001E001E0000000073
:1029B000000000000000000000000000FE03FF0F08
:1029C000871F003E007C007C007800F800F87FF84C
:1029D0007FF80F780F7C0F7C0F3E8F1FFF0FFE03D9
:1029E00000000000000000000000000000000000E7
:1029F0001F7C1F7C1F7C1F7C1F7C1F7C1F7C1F7CFF
:102A0000FF7FFF7F1F7C1F7C1F7C1F7C1F7C1F7C28
:102A10001F7C1F7C00000000000000000000000080
:102A200000000000FF3FFF3FE003E003E003E0039E
:102A3000E003E003E003E003E003E003E003E0037E
:102A4000E003E003FF3FFF3F000000000000000044
:102A50000000000000000000FC1FFC1F7C007C0048
:102A60007C007C007C007C007C007C007C007C0086
:102A70007C0078007800F838F03FC03F000000008C
:102A80000000000000000000000000001F3C1E3C91
:102A90003C3C783CF03CE03DE03FC03F803FC03FE5
:102AA000E03FF03DF03C783C7C3C3E3C1F3C0F3C22
:102AB0000000000000000000000000000000000016
:102AC000003E003E003E003E003E003E003E003E16
:102AD000003E003E003E003E003E003E003E003E06
:102AE000FF3FFF3F0000000000000000000000006A
:102AF000000000001FF81FFC1FFC3FFE3FFE3FFED2
:102B00007FFF77FF77FFF7F7E7F7E7F3E7F3C7F321
:102B100007F007F007F007F00000000000000000D9
:102B200000000000000000000F7C0F7C0F7E0F7F74
:102B30000F7F8F7F8F7FCF7FEF7BEF79FF79FF78DC
:102B4000FF787F783F783F781F781F78000000007B
:102B5000000000000000000000000000F007FC1F63
:102B60003E3E1F7C0F780F780FF80FF80FF80FF824
:102B70000FF80FF80F780F781F7C3E3EFC1FF00710
:102B80000000000000000000000000000000000045
:102B9000FC3FFF3F1F3E0F3E0F3E0F3E0F3E1F3ECE
:102BA0003F3EFC3FF03F003E003E003E003E003E08
:102BB000003E003E00000000000000000000000099
:102BC00000000000F007FC1F3E3E1F7C0F780F78CE
:102BD0000FF80FF80FF80FF80FF80FF80F780F78BD
:102BE0001F7C3E3EFC1FF8077C003F000F000300E7
:102BF0000000000000000000F03FFC3F7E3C3E3C37
:102C00001E3C1E3C3E3C3C3CFC3CF03FE03FF03D6B
:102C1000F83C7C3C3E3C1E3C1F3C0F3C000000004E
:102C2000000000000000000000000000FC07FE1F84
:102C30000E3E003C003C003C003EC01FF80FFE036F
:102C40007F001F000F000F001F203E3CFC3FF01FC5
:102C50000000000000000000000000000000000074
:102C6000FFFFFFFFE003E003E003E003E003E00316
:102C7000E003E003E003E003E003E003E003E0033C
:102C8000E003E0030000000000000000000000007E
:102C9000000000000F7C0F7C0F7C0F7C0F7C0F7CF2
:102CA0000F7C0F7C0F7C0F7C0F7C0F7C0F7C1E3CFD
:102CB0001E3C3E3EFC1FF00700000000000000002C
:102CC000000000000000000007F007F007F80F7890
:102CD0000F7C1E3C1E3C1E3E3C1E3C1F781F780F86
:102CE000F80FF007F007F007E003E0030000000032
:102CF00000000000000000000000000003E003F0FE
:102D000003F007F0E7F3E7F3E7F3E773F77BF77F09
:102D1000FF7F7F7F7F7F7E7F7E3F3E3E3E3E3E3E0B
:102D200000000000000000000000000000000000A3
:102D300007F80F7C1E3E3E3E3C1FF80FF007E007F1
:102D4000E003E003F007F80F7C0F7C1E3E3C1F7889
:102D50000F780FF0000000000000000000000000ED
:102D60000000000007F807780F7C1E3C1E3E3C1F49
:102D7000780FF80FF007E003E003E003E003E0035F
:102D8000E003E003E003E0030000000000000000B7
:102D90000000000000000000FF7FFF7F0F001F0009
:102DA0003E007C00F800F000E001E003C007800F67
:102DB000000F001E003E007CFF7FFF7F0000000030
:102DC000000000000000FF078007800780078007E1
:102DD00080078007800780078007800780078007BB
:102DE00080078007800780078007800780078007AB
:102DF00080078007FF07FF07000000780078003C8D
:102E0000003C001E001E000F000F80078007C0035B
:102E1000C003E001E001F000F000780078003C0021
:102E20003C001E001E000F000F0007000000F07F96
:102E3000F000F000F000F000F000F000F000F00012
:102E4000F000F000F000F000F000F000F000F00002
:102E5000F000F000F000F000F000F000F07FF07FF4
:102E60000000C000C001C001E003E003F007F0076C
:102E70007807780F380F3C1E3C1E1E3C1E3C0F3856
:102E80000F7807780000000000000000000000003C
:102E90000000000000000000000000000000000032
:102EA0000000000000000000000000000000000022
:102EB0000000000000000000000000000000000012
:102EC000FFFFFFFF000000000000F0000000000016
:102ED00000000000000000000000000000000000F2
:102EE00000000000000000000000000000000000E2
:102EF00000000000000000000000000000000000D2
:102F000000000000000000000000F80FFC3F7C3CC7
:102F10003E003E003E00FE07FE1F3E3E3E7C3E78E9
:102F20003E7C7E7CFF3FCF1F0000000000000000C1
:102F30000000003C003C003C003C003C003CF83DF4
:102F4000FE3F3E3F1F3E0F3C0F3C0F3C0F3C0F3CF3
:102F50000F3C1F3C1E3C3E3FFC3FF03B000000008E
:102F60000000000000000000000000000000000061
:102F70000000FE03FF0F871F003E003E003C007C68
:102F8000007C007C003C003E003E871FFF0FFE03DC
:102F9000000000000000000000001F001F001F00D4
:102FA0001F001F001F00FF07FF1F3F3E1F3C1F7C2D
:102FB0001F7C1F7C1F781F781F7C1F7C3F3C7F3E3F
:102FC000FF1FDF0F000000000000000000000000F5
:102FD00000000000000000000000F803FC0F3E1F8E
:102FE0001E3E1F3C1F7CFF7FFF7F007C007C003C5F
:102FF000003E071FFF0FFE0300000000000000005E
:103000000000FF01E103C003C007C007C007FF7F46
:10301000FF7FC007C007C007C007C007C007C007C1
:10302000C007C007C007C007C007C00700000000F6
:103030000000000000000000000000000000000090
:103040000000EF07FF1F7F3E1F3C1F7C1F7C1F7887
:103050001F781F781F7C1F7C3F3C7F3EFF1FDF0FC8
:103060001E001E001E007C38F83F003C003C003C67
:10307000003C003C003CFC3DFE3F9E3F1F3F1F3E8E
:103080001F3C1F3C1F3C1F3C1F3C1F3C1F3C1F3C68
:103090001F3C1F3C00000000000000000000F00189
:1030A000F0010000000000000000E07FE07FE00190
:1030B000E001E001E001E001E001E001E001E00108
:1030C000E001E001E001E00100000000000000007C
:1030D0000000F800F8000000000000000000F83FC9
:1030E000F83FF800F800F800F800F800F800F800E1
:1030F000F800F800F800F800F800F800F800F80010
:10310000F000F071E07F003C003C003C003C003CE3
:10311000003C1F3C3E3C7C3CF83CF03DE03DC03F69
:10312000C03FE03FF03DF83C7C3C3E3C1F3C1F3C38
:1031300000000000000000000000F07FF001F0013E
:10314000F001F001F001F001F001F001F001F001F7
:10315000F001F001F001F001F001F001F001F001E7
:10316000F001F0010000000000000000000000007D
:10317000000000000000000000009EF7FFFFFFFFBE
:10318000FFFFE7FBE7F9C7F1C7F1C7F1C7F1C7F1E7
:10319000C7F1C7F1C7F1C7F100000000000000004F
:1031A0000000000000000000000000000000FC3DE6
:1031B000FE3F9E3F1F3F1F3E1F3C1F3C1F3C1F3CCE
:1031C0001F3C1F3C1F3C1F3C1F3C1F3C00000000DD
:1031D00000000000000000000000000000000000EF
:1031E0000000F007FC1F3E3E1F3C1F7C0F780F784D
:1031F0000F780F780F781F7C1F3C3E3EFC1FF007B6
:1032000000000000000000000000000000000000BE
:10321000000000000000F83DFE3F3E3F1F3E0F3C17
:103220000F3C0F3C0F3C0F3C0F3C1F3C1E3E3E3FF3
:10323000FC3FF83F003C003C003C003C003C0000F0
:1032400000000000000000000000EE07FE1F7E3EB0
:103250001E3C1E7C1E781E781E781E781E781E7CF2
:103260003E7C7E3EFE1FDE0F1E001E001E001E0066
:103270001E000000000000000000000000007F1F92
:10328000FF1FE71FC71F871F001F001F001F001F12
:10329000001F001F001F001F001F001F0000000074
:1032A000000000000000000000000000000000001E
:1032B0000000FC07FE1F0E1E003E003E003FE01F08
:1032C000FC07FE003E001E001E003E3CFC3FF01FBF
:1032D00000000000000000000000000000000000EE
:1032E000800780078007FF7FFF7F800780078007B8
:1032F0008007800780078007800780078007C00756
:10330000FF03FF01000000000000000000000000BB
:10331000000000000000000000001E3C1E3C1E3C9F
:103320001E3C1E3C1E3C1E3C1E3C1E3C1E3C3E3CAD
:103330007E3CFE3EFE1FDE0F00000000000000008D
:10334000000000000000000000000000000007F086
:103350000F780F781E3C1E3C1E3E3C1E3C1E780F14
:10336000780FF00FF007F007E003E0030000000023
:10337000000000000000000000000000000000004D
:10338000000003F0E3F1E3F3E7F3F7F3F7F3F77F7C
:10339000777F7F7F7F7F7F7F3E3E3E3E3E3E3E3E4D
:1033A000000000000000000000000000000000001D
:1033B0000000000000000F7C1E3E3C3E3C1FF80F4A
:1033C000F007F007E003F007F807F80F7C1E3E3E19
:1033D0001F3C1F78000000000000000000000000FB
:1033E0000000000000000000000007F80F780F7CCC
:1033F0001E3C1E3C3C1E3C1E3C1F780FF80FF00785
:10340000F007E003E003C003C003C0038007800FA0
:10341000007F000000000000000000000000FF3FEF
:10342000FF3F1F003E007C00F800F001E003C007F2
:10343000800F001F001E003CFF7FFF7F0000000088
:10344000000000000000FE01E003C003C003C00351
:10345000C003E001E001E001C001C003803F803F04
:10346000C003C001E001E001E001C003C003C003EC
:10347000C003E003FE017E000000C001C001C001E6
:10348000C001C001C001C001C001C001C001C00134
:10349000C001C001C001C001C001C001C001C00124
:1034A000C001C001C001C001C001C0010000C03F97
:1034B000E003E001E001E001E001C001C003C0035E
:1034C000C001E001FE00FE00E001C001C003C00336
:1034D000C001E001E001E001E001E003C03F003F86
:1034E00000000000000000000000000000000000DC
:1034F0000000000000000000073FC77FE773FFF1F6
:103500007EF000000000000000000000000000004D
:1035100000000000000000000000000000000102A8
:1035200003040607080900004835000800000020D1
:103530002C000000C4010008743500082C00002095
:1035400034070000E001000800000000A000800037
:1035500040802000101A0000CA210008010000006D
:10356000000000000100000010000000000000004A
:043570000024F4003F
:040000050800018965
:00000001FF
