:020000040800F2
:10000000F00600202902000817100008430F00081E
:100010001510000821040008BD19000800000000A8
:10002000000000000000000000000000151900089A
:100030002304000800000000191000081719000828
:10004000430200084302000843020008430200087C
:10005000430200084302000843020008430200086C
:10006000430200084302000843020008430200085C
:10007000430200084302000843020008430200084C
:10008000430200084302000843020008430200083C
:10009000430200084302000843020008430200082C
:1000A000430200084302000843020008430200081C
:1000B000430200084302000843020008430200080C
:1000C00043020008430200084302000843020008FC
:1000D00043020008430200084302000843020008EC
:1000E00043020008430200084302000843020008DC
:1000F00043020008430200084302000843020008CC
:1001000043020008430200084302000843020008BB
:1001100043020008430200084302000843020008AB
:10012000430200084302000843020008430200089B
:10013000430200084302000843020008430200088B
:10014000430200084302000843020008430200087B
:10015000430200084302000843020008430200086B
:10016000430200084302000843020008430200085B
:100170004302000843020008430200080000000098
:10018000430200084302000800F002F800F03CF8C7
:100190000AA090E8000C82448344AAF10107DA45E2
:1001A00001D100F031F8AFF2090EBAE80F0013F0F8
:1001B000010F18BFFB1A43F00103184780440000E9
:1001C000A0440000103A24BF78C878C1FAD852077A
:1001D00024BF30C830C144BF04680C6070470000C1
:1001E0000023002400250026103A28BF78C1FBD840
:1001F000520728BF30C148BF0B6070471FB501F0E0
:10020000CCFD1FBD10B510BD00F0D5F81146FFF7AD
:10021000F5FF01F0B3FD00F0F3F803B4FFF7F2FFD0
:1002200003BC00F0F7F80000094880470948004780
:10023000FEE7FEE7FEE7FEE7FEE7FEE7FEE7FEE796
:10024000FEE7FEE704480549054A064B70470000F3
:10025000AD19000889010008F0000020F006002018
:10026000F0020020F002002053EA020C00F0698046
:100270002DE9F04B4FF00006002B1FBFB3FA83F5BA
:1002800003FA05F424FA05F65E4012BF1643B2FAEB
:1002900082F502FA05F4C5F120051EBF22FA05FC1D
:1002A00044EA0C04203556EA044C4FEA144418BFC3
:1002B000641C4FF000084FF00009904271EB030CF2
:1002C00039D3002919BFB1FA81F701FA07F6B0FA5C
:1002D00080F700FA07F6C7F120071EBF20FA07FCD7
:1002E00046EA0C062037B6FBF4FCA7EB0507103FE7
:1002F00007F01F0BCBF120060CFA0BFB2CFA06F6CD
:1003000044BFB3460026202FA4BF5E464FF0000B2B
:100310005BEA060C08BF4FF0010B19EB0B09ABFBB6
:10032000027C48EB0608C01B06FB02CC0BFB03CC8F
:1003300071EB0C01C1E70B46024641464846BDE859
:10034000F08B13B54FF000004FF00001AFF30080C9
:10035000BDE81C4070474FF0000200B513469446BC
:100360009646203922BFA0E80C50A0E80C50B1F10D
:100370002001BFF4F7AF090728BFA0E80C5048BF21
:100380000CC05DF804EB890028BF40F8042B08BFBF
:10039000704748BF20F8022B11F0804F18BF00F8BB
:1003A000012B704770477047704700000048704746
:1003B0009000002070477546FFF7F8FFAE46050035
:1003C0006946534620F00700854618B020B5FFF770
:1003D00039FFBDE820404FF000064FF000074FF016
:1003E00000084FF0000B21F00701AC46ACE8C00953
:1003F000ACE8C009ACE8C009ACE8C0098D4670475C
:1004000010B50446AFF300802046BDE81040FFF76A
:1004100004BF000001491820ABBEFEE72600020021
:10042000FEE7704770B5044600F00CF90546601C05
:1004300002D004480078044400F004F9401BA042B4
:10044000FAD370BD280000202DE9F84FDFF8BCA1D9
:10045000002201250AF1040B03264FF00F090BF1CE
:10046000040E00BF0B6805FA02F42340A34270D1CA
:100470000F7907F00307012F01D0022F16D18768EB
:100480004FEA420806FA08FC27EA0C07D1F80CC02C
:100490000CFA08FC4CEA070CC0F808C04768A743F0
:1004A0000C79C4F3001494403C4344600C79E44359
:1004B000A4070AD0C4684FEA420C06FA0CF7BC4302
:1004C0008F6807FA0CF72743C7600C7904F0030420
:1004D000022C12D1D40800EB840CDCF82040570722
:1004E000FF0E09FA07F824EA0804D1F8108008FA88
:1004F00007F848EA0408CCF8208004684FEA420C68
:1005000006FA0CF7BC430F7907F0030707FA0CF75C
:10051000274307604C6814F4403F70D03C4C276878
:1005200047F480472760246822F0030704F48044DE
:100530000094384C07EB040CDCF8084897074FEAA6
:10054000177809FA08F7BC43334FB84202D10027A5
:1005500024E054E0314FB84201D101271EE0304F72
:10056000B84201D1022719E02E4FB84201D103272A
:1005700014E02D4FB84201D104270FE02B4FB842B1
:1005800001D105270AE02A4FB84201D1062705E02C
:10059000284FB84201D1072700E0082707FA08F7DB
:1005A0002743CCF80878DAF800405746D1F804C061
:1005B0009C435FEACC3C00D51C433C60DBF8004028
:1005C0005F46D1F804C09C435FEA8C3C00D51C43D5
:1005D0003C60DEF800407746D1F804C09C435FEAF7
:1005E000CC2C00D51C433C60084F0C373C68D1F83C
:1005F00004C09C435FEA8C2C00D51C433C60521C19
:10060000102AFFF42FAFBDE8F88F0000003C014036
:100610004438024000300140000002400004024023
:1006200000080240000C024000100240001402408A
:1006300000180240001C02400AB1816170470904A1
:10064000FBE7000001488068704700002800002098
:1006500002488168027811448160704728000020B8
:100660000B4810B5016841F400710160016841F464
:1006700080610160016841F480710160032000F035
:1006800061F80F2000F006F800F024F8002010BDFB
:10069000003C024070B50D4D04464FF47A71287845
:1006A000B1FBF0F00A490968B1FBF0F000F035FC4D
:1006B00048B9102C07D200222146501E00F022F823
:1006C00000206C6070BD012070BD0000280000207B
:1006D000340000200A4808B5016841F480410160F7
:1006E000006800F4804000900548001F016841F058
:1006F00080510160006800F08050009008BD00004B
:1007000044380240F0B40E4B1B680C46C3F302237E
:10071000C3F10705042D00D90425191D072901D2AD
:10072000002300E0DB1E012606FA05F1491E2140E8
:1007300099409E40761E16403143F0BC01F03FB90F
:100740000CED00E0064900F0070208684FF6FF03D1
:10075000184040EA0220034A104308607047000036
:100760000CED00E00000FA052DE9F0470E4605000B
:1007700065D0DFF81481D8F80000F7B200F0070068
:10078000B04207D288F80070D8F8000000F00700E7
:10079000B04254D128683D4C810712D5400703D59B
:1007A000206840F4E05020602878000703D52068D6
:1007B00040F4604020602068A96820F0F000084301
:1007C00020602878C0072DD0304968680839012892
:1007D00012D0022813D0032811D0096889070029F4
:1007E0002DDA216821F0030101432160FFF72AFF80
:1007F000814641F2883A0EE009688903EFE709680B
:100800008901ECE7FFF71EFFA0EB0901514502D972
:100810000320BDE8F0872068696800F00C00B0EBA9
:10082000810FEFD1D8F80010404601F00701B14226
:1008300007D90770006800F00700B04201D001201E
:10084000E7E72878400705D52068E96820F4E050FC
:10085000084320602878000706D52068296920F41D
:10086000604040EAC100206000F018F82168084AA2
:10087000C1F30311515CC84006490860064800688E
:10088000FFF708FF0020C4E7003C024008380240A0
:100890002C460008340000202C000020154810B51C
:1008A000006810F00C02144813D04110042A0FD035
:1008B000082A0ED10F4C241F2268236802F03F0241
:1008C0005B0207D52068C0F38810A0FB010106E099
:1008D000084610BD2168C1F38811A1FB0001002367
:1008E000FFF7C2FC2168C1F30141491C4900B0FB7C
:1008F000F1F010BD083802400024F4002DE9F84F53
:1009000004006ED02078DFF84C93C007A9F10405ED
:100910004AD009F104000168C1F38101012908D01E
:100920000068C0F3810002280AD1D9F80000400213
:1009300006D52868800337D560680028E1D033E009
:100940006068B0F5803F10D0B0F5A02F286810D0B7
:1009500020F480302860286820F4802028606068B7
:10096000A8B1FFF76FFE06460DE0286840F480301E
:10097000F4E740F480202860F7E700BFFFF762FE4D
:10098000801B642873D828688003F7D50CE0FFF734
:1009900059FE064605E000BFFFF754FE801B6428A1
:1009A000F0D828688003F7D42078DFF8AC8280077D
:1009B0004FF0000A3ED5A748001D016811F00C0F4A
:1009C00008D00068C0F3810002280BD1D9F80000DC
:1009D000400207D42868800716D5E068012800D1B6
:1009E00012E033E1E068B8B10120C8F80000FFF779
:1009F00029FE064605E000BFFFF724FE801B022803
:100A0000C0D828688007F7D52868216920F0F80049
:100A100040EAC10028600DE0C8F800A0FFF712FE10
:100A2000064604E0FFF70EFE801B02281FD8286848
:100A30008007F7D42078000722D5864F8748616960
:100A4000703771B101210160FFF7FCFD064604E03B
:100A5000FFF7F8FD801B022809D838688007F7D512
:100A60000EE0C0F800A0FFF7EDFD064605E082E0CD
:100A7000FFF7E8FD801B02287DD838688007F7D48F
:100A80002078400768D5DFF8CCB100270BF13C0B8C
:100A9000DBF80000C0000BD4DBF8001041F08051FF
:100AA000CBF80010DBF80000012700F08050009028
:100AB0006B4E3068C00510D4306840F480703060F0
:100AC000FFF7C0FD009005E0FFF7BCFD0099401A5C
:100AD000022850D83068C005F6D55E4EA0686C3646
:100AE00001280FD00528306810D020F001003060B8
:100AF000306820F004003060A068B8B1FFF7A2FDB4
:100B000000900FE0306840F00100F4E740F004008E
:100B10003060F7E7FFF796FD0099411A41F28830FF
:100B2000814266D830688007F4D50EE0FFF78AFD71
:100B3000009007E0FFF786FD0099411A41F28830E6
:100B4000814256D830688007F4D42FB1DBF800100A
:100B500021F08051CBF80010A069C8B33D49091DB0
:100B60000968C1F3810102294AD00228504607D002
:100B7000C8F8600000E03CE0FFF764FD04463BE09D
:100B80004746C8F86000FFF75DFD064605E000BF78
:100B9000FFF758FD801B02282BD828688001F7D466
:100BA000D4E907010843A16A2E4A490802EB014132
:100BB000626A41EA8211084394F82C1040EA01610C
:100BC000C9F8001001203866FFF73CFD044606E036
:100BD0003EE000BFFFF736FD001B022809D8286859
:100BE0008001F7D534E000BFFFF72CFD001B022881
:100BF00002D90320BDE8F88F28688001F4D427E0EB
:100C00000128F7D0D9F80000E26900F48001914290
:100C10001CD1226A00F03F01914217D147F6C07102
:100C2000626A0140B1EB821F10D1A26A4FF0FF331C
:100C300000F4403103EB5202B1EB024F06D194F8BD
:100C40002C1000F07060B0EB016F01D00120D1E7F3
:100C50000020CFE70438024000004742800E4742A0
:100C6000007000400000FFFF70B5040009D0606A0A
:100C7000002540B125616561A56294F8510040B13D
:100C80000CE0012070BD6068B0F5827FF4D0E561B2
:100C9000F2E784F85050204600F044F8022084F82F
:100CA00051002068016821F040010160A08821897D
:100CB00000F4827001F404410843A18901F4006149
:100CC0000843217C01F002010843217D01F001016C
:100CD0000843218B01F400710843217F01F03801A2
:100CE000084394F8201001F080010843218D01F49D
:100CF0000051084321680860A069042101EA1040FE
:100D000094F8241001F0100108432168486020681D
:100D1000C16921F40061C1616565012084F8510059
:100D2000002070BDF0B587B0044614216846FFF777
:100D300012FB1C492068884232D11B4800240168FC
:100D400041F480410160006800F48040059016483D
:100D50001038016841F004010160016801F00401EC
:100D60000591016841F0020101600068022500F070
:100D7000020005900C20CDE9000502AA03260527F4
:100D800082E8D00069460948FFF75EFB6802CDE9BA
:100D9000000502AA694682E8D0000548FFF754FB27
:100DA00007B0F0BD00380040403802400008024063
:100DB000000402402DE9F84F044690F85000002747
:100DC0001D461646894601280DD04FF0010B84F8C8
:100DD00050B0FFF737FC804694F85100BA4601281E
:100DE00004D0022793E00220BDE8F88FB9F1000F8C
:100DF00073D0002E71D0032084F85100C4F854A0A1
:100E0000C4F83090A686E686C4F838A0A4F83CA0C2
:100E1000A4F83EA0C4F844A0C4F840A0A068B0F56F
:100E2000004F09D12068016821F04001016020686D
:100E3000016841F48041016020680168490603D4DB
:100E4000016841F040010160E068B0F5006F606842
:100E500003D030B3012E24D041E008B1012E1CD1C3
:100E6000206B21680088C86006E0206881688907D7
:100E700009D5216B0988C160206B801C2063E08E3E
:100E8000401EE08609E0FFF7DDFBA0EB0800A8426A
:100E900002D3681C01D031E07DB3E08E0028E4D19C
:100EA00020E0206B21680078087306E020688168E4
:100EB000890709D5216B09780173206B401C2063D9
:100EC000E08E401EE0860AE0FFF7BCFBA0EB0800C6
:100ED000A84203D3681C02D010E017E06DB1E08E89
:100EE0000028E3D142462946204600F097F808B191
:100EF00020206065A06818B106E0FFE7032706E040
:100F00002068C16880680090606D00B1012784F896
:100F100051B084F850A0384666E710B5401EB0F1D5
:100F2000807F01D3012010BD4FF0E02460610F21CC
:100F3000601700F044FD0020A06107202061002020
:100F400010BDFEE770B586B014216846FFF703FABE
:100F50001E480025016841F080010160016801F030
:100F600080010591016841F004010160016801F010
:100F700004010591016841F010010160016801F070
:100F800010010591016841F002010160016801F062
:100F900002010591016841F00101016000680C4EF9
:100FA00000F001004FF470640590002221463046A5
:100FB000FFF742FB0120CDE900400220CDE90250BD
:100FC00069463046FFF740FA06B070BD303802403F
:100FD000001002400E4810B50C4901604FF48271B8
:100FE000416000218160C1604FF400720161C0E97D
:100FF0000512C1610162416281620A21C162FFF78B
:1010000033FE002801D072B6FEE710BD0038004064
:1010100038000020FEE7FEE77047000038B50446C0
:101020001248134B0068B0FBF3F04FF47A73584347
:1010300000906068B0F5827F0DD10B4600920022CF
:101040008021204600F016F870B1606D40F020005D
:101050006065032038BD009830B1401E00902068C4
:101060008068C0430006F6D5002038BD340000205B
:1010700000366E012DE9F8431E4691468846044627
:10108000089DFFF7DFFA401B351AFFF7DBFA07462A
:1010900025480068C0F3CB30684338E0701C37D077
:1010A000FFF7D0FAC01BA84203D215B1009860B375
:1010B0002CE02068416821F0E00141606068B0F5F3
:1010C000827F0BD1A068B0F5004F02D0B0F5806FE1
:1010D00004D12068016821F040010160A06AB0F5E8
:1010E000005F09D12068016821F400510160206887
:1010F000016841F400510160012084F85100002092
:1011000084F850000320BDE8F8830025401E0090BD
:101110002068816838EA010004D000214945BDD12A
:101120000020F0E70121F9E7340000200122D1027C
:101130000148FFF781BA0000001002402DE9FF4F7F
:101140000746C2F101000FFA80F8500014464042F1
:1011500083B00FFA80FA0E4638194FF001090025C6
:1011600089B280B2069A00F0F7F8381BB1B280B2AB
:10117000069A00F0F1F8301B81B2B8B2069A00F07E
:10118000EBF8301981B2B8B258E000BFB8F1000FE7
:1011900009DB0AF102000FFA80FA641E08EB0A006C
:1011A00024B20FFA80F809F102000FFA80F96D1CE1
:1011B00008EB09002DB20FFA80F87819019006EBC0
:1011C000040B1FFA8BF180B2069A00F0C5F8781B69
:1011D00000901FFA8BF180B2069A00F0BDF80098DB
:1011E000A6EB040B1FFA8BF180B2069A00F0B4F85C
:1011F00001981FFA8BF180B2069A00F0ADF8381909
:10120000019006EB050B1FFA8BF180B2069A00F0F5
:10121000A3F8381B00901FFA8BF180B2069A00F0F9
:101220009BF80098A6EB050B1FFA8BF180B2069A8B
:1012300000F092F801981FFA8BF180B2069A00F044
:101240008BF8A542A2DB07B0BDE8F08F38B50C4D96
:101250001C46B5F90630984210DAB5F90450A94297
:101260000CDA85186D1E9D4201DB1A1A12B2024477
:10127000521E12B20B46009400F01EF838BD00005A
:101280000000002038B50B4CB4F90650A84210DA23
:10129000B4F90440A1420CDA8D186D1EA54201DBA1
:1012A000621A12B20A44521E009313B2024600F0B0
:1012B00003F838BD000000202DE9F05F0C4606461B
:1012C0001546191BA2EB060000D54942002800DA9A
:1012D0004042814207DD304626461D464FF0010858
:1012E0000446134601E04FF00008AE4205DD3046EB
:1012F0002E46054620461C460346A81B0FFA80F9D9
:10130000181B00D540420FFA80FB09EBD97047103B
:101310009C4201DA012001E04FF0FF30824617E0E5
:10132000B8F1000F02D0B1B2A0B201E0A1B2B0B2E8
:101330000A9A00F011F8A7EB0B0007B2002F05DAAC
:1013400004EB0A0004B207EB090007B2761C36B2C0
:10135000AE42E5DDBDE8F09F2DE9F84305461648AD
:101360000C461646B0F906108D4222DAB0F9040098
:1013700084421EDADFF844804FF480770022394639
:101380004046FFF759F9601CC3B2681CC2B2E1B213
:10139000E8B200F0D1F9300A8DF800008DF8016054
:1013A0000221684600F0A0FA012239464046FFF7C4
:1013B00043F9BDE8F883000000000020001002405F
:1013C0002DE9FE4FDFF874B014460E4605464FF483
:1013D000807A9846002251465846FFF72DF9DFF8EB
:1013E000609008F0FF071EE0B9F9063079199942BC
:1013F0000BDBC8F307218B199EB2B9F90400002555
:101400003144814212DA202A0CD0DDE90D01CDE908
:1014100001010C98009043463146284600F008FA36
:10142000781985B2641C2278002ADDD103B05146B8
:101430005846BDE8F04F0122FFF7FEB80010024009
:10144000000000202DE9F04110F8015B044617E090
:10145000207800F035FA6078A41C00F0800730F0A6
:10146000800604D03146204600F03EFA34443FB1B5
:1014700014F8010BFF2801D14FF4FA70FEF7D2FFE8
:101480006D1EEDB2E4D2BDE8F08100002DE9F84F09
:10149000074629480E46DDF82880B0F906101C469C
:1014A00015468F4246DAB0F90400864242DA7A19CC
:1014B000521E8A4201DBC91B8DB23119491E81427D
:1014C00001DB801B84B2DFF874904FF4807A002235
:1014D00051464846FFF7B0F83019401EC3B278199C
:1014E000401EC2B2F1B2F8B200F026F94FEA18205D
:1014F0008DF8000001228DF8018091024846FFF727
:101500009BF826464FF0FF370DE02C4607E03B46A0
:10151000022269460A48FFF74DFC641EA4B2002C63
:10152000F5D1761EB6B2002EEFD1012251464846C3
:10153000FFF782F8BDE8F88F00000020001002409D
:101540003800002008B5009004488188C0888BB21C
:1015500082B200210846FFF799FF08BD0000002075
:101560002DE9F04F87B00D46DDE910191E461446EF
:101570008046B54203DD2E4644461D4690464E4504
:1015800005DD4846B1460646084621460446B542B2
:1015900005DD2846354606464046A04604464D45EC
:1015A00018D140464246844201DA204601E000DD7F
:1015B0002246814201DA084602E0914200DD0A46F5
:1015C000111A491C129B0AB207B02946BDE8F04F18
:1015D000FFF73CBEA4EB080000B20690701B00B2FF
:1015E0000590A1EB080000B20090A9EB050000B245
:1015F0000390081B00B20290A9EB060000B24FF066
:10160000000BDA4604904E4501D1019602E0701EAF
:1016100000B201902F4625E00599039A9BFBF1F15A
:101620009AFBF2F201EB080002EB08010FFA81FCD1
:10163000069A00B20BEB0201009A0FFA81FB0AEB4B
:1016400002010FFA81FA604502DD014660468C46D0
:10165000ACEB0001491C0AB23946129BFFF7F6FDBC
:101660007F1C3FB201988742D6DD0299B81B4843E0
:1016700006B20098791B41430DB21EE0049803990D
:1016800096FBF0F095FBF1F202EB0801029B20447F
:10169000F21816B2009A00B209B22A4415B2884272
:1016A00002DD024608461146091A491C0AB23946AB
:1016B000129BFFF7CBFD7F1C3FB24F45DEDD07B02D
:1016C000BDE8F08F0148B0F9040070470000002029
:1016D0000148B0F9060070470000002070B5144DB5
:1016E0004FF48074002221462846FEF7A5FF6600CD
:1016F000002231462846FEF79FFF1420FEF792FE97
:10170000012231462846FEF797FF0A48FFF79AFE66
:1017100008483B30FFF796FE06484830FFF792FE38
:1017200021462846BDE870400122FEF785BF000033
:1017300000100240A41D0008F8B504461D461646D8
:101740000F462A2000F0BCF82146104C00200090E3
:10175000607801448DF8011030448DF803000421B5
:10176000684600F0C1F82B2000F0AAF8A0783918DC
:101770008DF8011028448DF803000421684600F01C
:10178000B3F82C2000F09CF8F8BD00000000002009
:101790002DE9F843244C00F00300DFF8909020700E
:1017A0004FF48078002241464846FEF745FF362038
:1017B00000F086F821780025802604F10800A02793
:1017C00031B101290CD0022915D003290CD11CE01C
:1017D00001784278C078114301438DF800100DE084
:1017E000417813E06570A57041464846BDE8F8436E
:1017F0000122FEF721BFC0788DF800000121684664
:1018000000F072F8E680A780ECE701788278C07873
:10181000114301438DF800100121684600F064F87F
:10182000E780A680DEE700000000002000100240F4
:101830000FB42DE9FF5F4A1EC3F307263244D4B22A
:10184000DFB2421EDDE913A93A44D2B2C9B2C0B236
:101850002346FFF771FF00252CE01098203810FB7D
:1018600006501299002409F0FF0B31F810804FEA5E
:101870001A2002900AF0FF0001904FEA1920009010
:1018800015E000BF08FA04F0000406D502988DF8B0
:101890000C0001988DF80D0004E000988DF80C0004
:1018A0008DF80DB0022103A800F01EF8641CA742B9
:1018B000E8D86D1CAE42D0D8BDE8FF1F5DF814FB20
:1018C00001B500224FF480610548FEF7B5FE4FF0E8
:1018D000FF33012269460348FFF76CFA08BD000098
:1018E000001002403800002070B50D460446012269
:1018F00091020648FEF7A0FEAAB22146BDE870405C
:101900004FF0FF330248FFF755BA000000100240C5
:10191000380000207047FEF79BBE000030B593B042
:1019200030216846FEF717FD14210CA8FEF713FDC1
:101930001C480024016841F080510160006800F0FB
:10194000805011901848016841F48041016000689E
:10195000022500F480401190012003901020049093
:10196000009506950820CDE907405020CDE90905EE
:1019700004200B906846FEF7C1FF08B172B6FEE77F
:101980000F20CDE90C059020CDE90E0400210CA814
:101990001094FEF7E9FE002801D072B6FEE713B0FE
:1019A00030BD00004038024000700040024801682D
:1019B00041F470010160704788ED00E0FEE709071F
:1019C000090E002804DB00F1E02080F800147047C5
:1019D00000F00F0000F1E02080F8141D70470000B7
:1019E0002DE9FE4FDFF8E88298F80000FFF7D0FEFF
:1019F0000020FFF7A7FD00244FF6FF750DE0A0B211
:101A00002A460021FFF7A8FCFFF75CFE401E81B2CA
:101A1000A0B22A46FFF7A0FC641CFFF759FEA042C3
:101A2000EDDC00240DE0A1B22A460020FFF794FC73
:101A3000FFF74EFE401E80B2A1B22A46FFF78CFC93
:101A4000641CFFF73FFEA042EDDCFFF73BFE0446BF
:101A5000FFF73EFE02460021234608460095FFF7A9
:101A60002BFCFFF72FFE0446FFF732FE0022234631
:101A700011460095FFF720FC4FF4FA60FEF7D2FC08
:101A80000020FFF75FFD00240AE000BFFFF720FE03
:101A9000401E02B22B4621B20020FFF7D7FB241DC7
:101AA000FFF710FEA042F1DC002409E0FFF70AFE78
:101AB000401E02B22B46002120B2FFF7E3FB241D9B
:101AC000FFF706FEA042F1DC4FF4FA60FEF7AAFC35
:101AD0000020FFF737FD4FF4784B00267D48CDE915
:101AE00001B64168009103685F467BA231463046EB
:101AF000FFF766FC4FF4FC69844CCDE90196606801
:101B0000009083A21E2100202368FFF759FC4FF0AC
:101B10001F0A8748CDE901A641680091036885A2A4
:101B200054210020FFF74CFC4FF4FA60FEF77AFCDA
:101B30000020FFF707FDCDE9015660680090002105
:101B40007FA208462368FFF73BFC4FF4FA70FEF7CC
:101B500069FC1F20FFF7F6FCCDE9016A6068009080
:101B6000002179A208462368FFF72AFC4FF4FA7097
:101B7000FEF758FC3846FFF7E5FCCDE901676068E1
:101B80000090002172A208462368FFF719FC4FF469
:101B9000FA70FEF747FC4846FFF7D4FCCDE901692F
:101BA0006068009000216BA208462368FFF708FCDC
:101BB0004FF4FA70FEF736FC40F2FF773846FFF735
:101BC000C1FCCDE9016760680090002163A208466E
:101BD0002368FFF7F5FB4FF4FA70FEF723FC4FF68E
:101BE0001F073846FFF7AEFCCDE90167606800903B
:101BF00000215CA208462368FFF7E2FB4FF4FA706D
:101C0000FEF710FC4FF6E0773846FFF79BFCCDE976
:101C1000016760680090002154A208462368FFF71E
:101C2000CFFB4FF4FA70FEF7FDFB2846FFF78AFC66
:101C3000CDE901656068009000214EA20846236846
:101C4000FFF7BEFB4FF4FA70FEF7ECFB0020FFF746
:101C500079FC002410E000BFFFF734FD0546FFF7D4
:101C600037FD05EBD57100EBD070491040103B46B5
:101C700022B2FFF763FAA41CFFF724FD00EBD0703B
:101C8000B4EB600FE8DB4FF47A773846FEF7CAFB17
:101C90000020FFF757FCFFF71BFD0546FFF712FD7D
:101CA0000446FFF715FD00EBD0708DE86008421088
:101CB000002123460846FFF753FC3846FEF7B2FBE7
:101CC00098F80010491C88F80010BDE8FE8F00004D
:101CD0000C00002010000020466F6E745F377831D2
:101CE000302C20726564206F6E20626C61636B2CF7
:101CF000206C6F72656D20697073756D20646F6CF8
:101D00006F722073697420616D6574001800002083
:101D1000466F6E745F31317831382C20677265659B
:101D20006E2C206C6F72656D20697073756D00008C
:101D300020000020466F6E745F3136783236000026
:101D4000424C41434B000000424C5545000000000E
:101D500052454400475245454E0000004359414E0C
:101D6000000000004D4147454E54410059454C4C40
:101D70004F5700005748495445000000FEF770FCDB
:101D8000FFF7CCFDFFF7DEF8FFF724F9FFF7A6FC1D
:101D9000FFF7CCF9FFF724FEFCE74FF04070E1EECF
:101DA000100A70470F0180961180FFB103012C2D9E
:101DB000B203012C2DB306012C2D012C2DB40107EB
:101DC000C003A20284C101C5C2020A00C3028A2A5A
:101DD000C4028AEEC5010E20003601C03A01050298
:101DE0002A040000007F2B040000007F04E01002A2
:101DF0001C07123732292D29252B3900010310E148
:101E000010031D07062E2C292D2E2E373F00000211
:101E10001013800A29806400000000000000000008
:101E20000000000000000000000000000010001092
:101E30000010001000100010000000100000000052
:101E4000002800280028000000000000000000001A
:101E50000000000000240024007C00240048007CD6
:101E600000480048000000000038005400500038CE
:101E700000140054005400380010000000200054EA
:101E80000058003000280054001400080000000032
:101E900000100028002800100034004800480034DA
:101EA0000000000000100010001000000000000002
:101EB00000000000000000000008001000200020CA
:101EC000002000200020002000100008002000104A
:101ED00000080008000800080008000800100020A2
:101EE0000010003800100028000000000000000072
:101EF000000000000000000000100010007C001036
:101F000000100000000000000000000000000000C1
:101F10000000000000000010001000100000000091
:101F20000000000000000038000000000000000079
:101F30000000000000000000000000000000001091
:101F40000000000000080008001000100010001041
:101F5000002000200000000000380044004400542D
:101F6000004400440044003800000000001000302D
:101F700000500010001000100010001000000000C1
:101F80000038004400440004000800100020007CD9
:101F900000000000003800440004001800040004A1
:101FA0000044003800000000000800180028002845
:101FB0000048007C0008000800000000007C004091
:101FC00000400078000400040044003800000000D5
:101FD00000380044004000780044004400440038C9
:101FE00000000000007C0004000800100010002029
:101FF00000200020000000000038004400440038A9
:102000000044004400440038000000000038004450
:1020100000440044003C000400440038000000007C
:102020000000000000100000000000000000001090
:102030000000000000000000000000100000000090
:10204000000000100010001000000000000C003024
:1020500000400030000C0000000000000000000004
:102060000000007C0000007C000000000000000078
:10207000000000000060001800040018006000006C
:1020800000000000003800440004000800100010A8
:10209000000000100000000000380044004C005414
:1020A000005C0040004000380000000000100028E4
:1020B000002800280028007C0044004400000000A4
:1020C0000078004400440078004400440044007854
:1020D0000000000000380044004000400040004084
:1020E0000044003800000000007000480044004434
:1020F000004400440048007000000000007C0040E4
:102100000040007C004000400040007C00000000D7
:10211000007C00400040007800400040004000404B
:10212000000000000038004400400040005C004413
:102130000044003800000000004400440044007CDB
:102140000044004400440044000000000038001037
:1021500000100010001000100010003800000000F7
:1021600000040004000400040004000400440038DB
:10217000000000000044004800500060005000488B
:1021800000480044000000000040004000400040C3
:10219000004000400040007C000000000044006C53
:1021A000006C00540044004400440044000000005F
:1021B00000440064006400540054004C004C00448F
:1021C0000000000000380044004400440044004483
:1021D000004400380000000000780044004400443F
:1021E000007800400040004000000000003800443B
:1021F000004400440044004400540038000400003F
:10220000007800440044004400780048004800443E
:1022100000000000003800440040003000080004C6
:102220000044003800000000007C00100010001086
:1022300000100010001000100000000000440044D6
:102240000044004400440044004400380000000002
:10225000004400440044002800280028001000101A
:102260000000000000440044005400540054006C7E
:10227000002800280000000000440028002800106A
:102280000010002800280044000000000044004422
:1022900000280028001000100010001000000000AE
:1022A000007C000400080010001000200040007CAA
:1022B00000000000001800100010001000100010B6
:1022C0000010001000100018002000200010001066
:1022D000001000100008000800000000003000108E
:1022E000001000100010001000100010001000304E
:1022F000001000280028004400000000000000003A
:1023000000000000000000000000000000000000CD
:1023100000000000000000FE00200010000000008F
:1023200000000000000000000000000000000000AD
:1023300000380044003C0044004C00340000000021
:10234000004000400058006400440044006400580D
:102350000000000000000000003800440040004081
:102360000044003800000000000400040034004C69
:1023700000440044004C0034000000000000000055
:1023800000380044007C0040004400380000000099
:10239000000C0010007C0010001000100010001055
:1023A00000000000000000000034004C0044004425
:1023B000004C0034000400780040004000580064E5
:1023C00000440044004400440000000000100000ED
:1023D000007000100010001000100010000000003D
:1023E000001000000070001000100010001000101D
:1023F000001000E000400040004800500060005025
:1024000000480044000000000070001000100010A0
:10241000001000100010001000000000000000007C
:102420000078005400540054005400540000000090
:1024300000000000005800640044004400440044D0
:102440000000000000000000003800440044004488
:102450000044003800000000000000000058006444
:1024600000440044006400580040004000000000A8
:102470000034004C00440044004C003400040004CC
:102480000000000000580064004000400040004090
:102490000000000000000000003800440030000888
:1024A00000440038000000000020002000780020D8
:1024B00000200020002000180000000000000000A4
:1024C0000044004400440044004C0034000000007C
:1024D00000000000004400440028002800280010EC
:1024E0000000000000000000005400540054006C84
:1024F0000028002800000000000000000044002820
:10250000001000100028004400000000000000003F
:102510000044004400280028001000100010006053
:1025200000000000007C0008001000200040007C3B
:102530000000000000180010001000100020002013
:102540000010001000100018001000100010001003
:1025500000100010001000100010001000300010DB
:1025600000100010000800080010001000100030DB
:102570000000000000000074004C0000000000009B
:10258000000000000000000000000000000000004B
:10259000000000000000000000000000000000003B
:1025A00000000000000000000000000C000C000C07
:1025B000000C000C000C000C000C000C000C000CBB
:1025C0000000000C000C0000000000000000001BD8
:1025D000001B001B001B001B00000000000000008F
:1025E00000000000000000000000000000000000EB
:1025F00000008019801980198019C07FC07F801960
:102600000033C07FC07F003300330033003300004D
:10261000000000000000001E003F8075806500740F
:10262000003C001E00078005806580658075003FC6
:10263000001E0004000400000000007000D840D814
:10264000C0D880D900730006000C801BC036C0665D
:10265000C046C00680030000000000000000001E0D
:10266000003F003300330033001E000CC03CC06646
:10267000806380618063C03E801C00000000000019
:102680000000000C000C000C000C000C000000000E
:10269000000000000000000000000000000000003A
:1026A0000000000080000001000300060006000496
:1026B000000C000C000C000C000C000C00040006C8
:1026C0000006000300018000002000100018000C2C
:1026D000000C0004000600060006000600060006C6
:1026E0000004000C000C0018001000200000000C7A
:1026F000002D003F001E003300000000000000001D
:1027000000000000000000000000000000000000C9
:10271000000000000000000C000C000C000CC0FFCA
:10272000C0FF000C000C000C000C000000000000BA
:102730000000000000000000000000000000000099
:102740000000000000000000000000000000000C7D
:10275000000C00040004000800000000000000005D
:1027600000000000000000000000001E001E00002D
:102770000000000000000000000000000000000059
:102780000000000000000000000000000000000049
:10279000000000000000000C000C00000000000021
:1027A0000000000300030003000600060006000608
:1027B000000C000C000C000C0018001800180000A1
:1027C000000000000000001E003F003380618061B7
:1027D0008061806D806D8061806180610033003F29
:1027E000001E00000000000000000006000E001E99
:1027F0000036002600060006000600060006000659
:102800000006000600060000000000000000001E98
:10281000003F807380618061800100030006000C2E
:10282000001800300060807F807F00000000000002
:102830000000001C003E006300630003000E000E59
:1028400000038001800180618073003F001E000052
:102850000000000000000006000E000E001E001E1A
:102860000016003600360066807F807F0006000676
:1028700000060000000000000000007F007F0060F4
:1028800000600060006E007F8063800180018061D5
:102890008073003F001E0000000000000000001ECA
:1028A000003F803380610060006E007F8073806134
:1028B000806180618033003F001E00000000000046
:1028C0000000807F807F8001000300030006000677
:1028D000000C000C000C0008001800180018000084
:1028E000000000000000001E003F806380618061E6
:1028F0000021001E003F8061806180618061003F97
:10290000001E0000000000000000001E003F0073D9
:102910008061806180618073803F801D8001806163
:102920000073003F001E00000000000000000000D7
:10293000000000000000000C000C0000000000007F
:10294000000000000000000C000C0000000000006F
:10295000000000000000000000000000000C000C5F
:1029600000000000000000000000000C000C00044B
:102970000004000800000000000000008000800348
:10298000000E003800600038000E80038000000058
:102990000000000000000000000000000000000037
:1029A0000000807F807F00000000807F807F00002B
:1029B0000000000000000000000000000000000017
:1029C0000000000000400070001C000780010007AC
:1029D000001C00700040000000000000000000002B
:1029E0000000001F803FC071C060C000C0018003B4
:1029F0000007000E000C000C0000000C000C000092
:102A0000000000000000001E003F803180718063E4
:102A1000806F806D806D806F806700600032003E47
:102A2000001C0000000000000000000E000E001B53
:102A3000001B001B001B80318031803F803F8031B4
:102A4000C060C060C0600000000000000000007CAA
:102A5000007E0063006300630063007E007E00630D
:102A6000806180618063007F007E000000000000C4
:102A70000000001E003F8031806100600060006047
:102A800000600060006080618031003F001E000037
:102A9000000000000000007C007F00638063806114
:102AA0008061806180618061806100630063007E7D
:102AB000007C0000000000000000807F807F00603C
:102AC000006000600060007F007F006000600060C8
:102AD0000060807F807F0000000000000000807F99
:102AE000807F0060006000600060007F007F006009
:102AF00000600060006000600060000000000000F6
:102B00000000001E003F80318061006000600060B6
:102B100080638063806180618031803F001E00009F
:102B20000000000000008061806180618061806140
:102B30008061807F807F8061806180618061806151
:102B400080610000000000000000003F003F000C1A
:102B5000000C000C000C000C000C000C000C000C15
:102B6000000C003F003F000000000000000080015A
:102B7000800180018001800180018001800180014D
:102B8000806180618073003F001E00000000000033
:102B90000000C0608061006300660066006C007821
:102BA000007C00660066006380618061C060000098
:102BB0000000000000000060006000600060006035
:102BC0000060006000600060006000600060807F66
:102BD000807F0000000000000000C071C071C07B59
:102BE000C07AC06AC06AC06EC064C060C060C060A5
:102BF000C060C060C0600000000000000000807184
:102C00008071807980798079806D806D806D80653C
:102C10008067806780678063806300000000000039
:102C20000000001E003F0033806180618061806190
:102C300080618061806180610033003F001E000080
:102C4000000000000000007E007F806380618061E2
:102C500080618063007F007E006000600060006033
:102C600000600000000000000000001E003F003374
:102C70008061806180618061806180618065806742
:102C80000033803F401E0000000000000000007E76
:102C9000007F8063806180618063007F007E0066CA
:102CA0000063006380618061C0600000000000007C
:102CB0000000000E001F8031803100300038001EFF
:102CC00000078003806180618031003F001E0000AA
:102CD000000000000000C0FFC0FF000C000C000C52
:102CE000000C000C000C000C000C000C000C000C84
:102CF000000C000000000000000080618061806125
:102D000080618061806180618061806180618061BB
:102D10008073003F001E0000000000000000C06043
:102D2000C060C060803180318031001B001B001BFF
:102D3000001B000E000E000E00040000000000004A
:102D40000000C0C0C0C0C0C0C0C0C0C0C0CC804CAB
:102D5000804C805E80528052807380618061000070
:102D6000000000000000C0C0806080610033003BB4
:102D7000001E000C000C001E001F003B80718061D3
:102D8000C0C00000000000000000C0C08061806181
:102D900000330033001E001E000C000C000C000C61
:102DA000000C000C000C0000000000000000803F40
:102DB000803F8001000300030006000C000C001897
:102DC000001800300060807F807F0000000000005D
:102DD000000F000F000C000C000C000C000C000C8D
:102DE000000C000C000C000C000C000C000C000C83
:102DF000000F000F0000001800180018000C000C55
:102E0000000C000C0006000600060006000300038C
:102E10000003000000000000001E001E0006000667
:102E20000006000600060006000600060006000672
:102E30000006000600060006001E001E0000000C32
:102E4000000C001E0012003300338061806100001E
:102E50000000000000000000000000000000000072
:102E60000000000000000000000000000000000062
:102E70000000000000000000000000000000000052
:102E8000E0FF0000000000380018000C0000000007
:102E90000000000000000000000000000000000032
:102EA0000000000000000000000000000000000022
:102EB0000000001F803F80618001801F803F806193
:102EC0008063807FC03800000000000000000060C8
:102ED000006000600060006E007F80738061806130
:102EE000806180618073007F006E00000000000040
:102EF00000000000000000000000001E003F807382
:102F000080610060006080618073003F001E0000EF
:102F10000000000000008001800180018001801D10
:102F2000803F807380618061806180618073803FB9
:102F3000801D0000000000000000000000000000F4
:102F40000000001E003F00738061807F807F006072
:102F50008071003F001E0000000000000000C0075C
:102F6000C00F000C000C807F807F000C000C000C58
:102F7000000C000C000C000C000C00000000000015
:102F80000000000000000000801D803F8073806111
:102F90008061806180618073803F801D80018063DB
:102FA000007F003E00000060006000600060006F75
:102FB000807F8071806180618061806180618061DB
:102FC0008061000000000000000000060006000014
:102FD0000000003E003E0006000600060006000657
:102FE00000060006000600000000000000060006C3
:102FF00000000000003E003E00060006000600063D
:10300000000600060006000600060046007E003CA2
:103010000000006000600060006080610063006686
:10302000006C007C0076006300638061C06000007B
:10303000000000000000003E003E00060006000602
:103040000006000600060006000600060006000650
:10305000000600000000000000000000000000006A
:10306000000080DDC0FFC0CEC0CCC0CCC0CCC0CC86
:10307000C0CCC0CCC0CC00000000000000000000AC
:10308000000000000000006F807F8071806180611F
:1030900080618061806180618061000000000000CB
:1030A00000000000000000000000001E003F8073D0
:1030B00080618061806180618073003F001E00003C
:1030C000000000000000000000000000006E007F13
:1030D000807380618061806180618073007F006E99
:1030E0000060006000600060000000000000000060
:1030F000801D803F8073806180618061806180730A
:10310000803F801D8001800180018001000000005F
:103110000000000000000067803F003900300030F0
:1031200000300030003000300030000000000000AF
:1031300000000000000000000000001E803F8061D1
:103140000060007F803F80018061007F001E0000E2
:103150000000000000000000000800180018007FB8
:10316000007F001800180018001800180018801FB1
:10317000800F0000000000000000000000000000C0
:103180000000806180618061806180618061806118
:103190008063807F803D0000000000000000000090
:1031A000000000000000C060803180318031001BD1
:1031B000001B001B000E000E0006000000000000B7
:1031C0000000000000000000000080DD80DD80DDE8
:1031D00000550055005500770077002200220000BE
:1031E00000000000000000000000000000008061FE
:1031F00000330033001E000C000C001E00330033AF
:1032000080610000000000000000000000000000DD
:1032100080618061803100330033001B001B001B84
:10322000000E000E000E001C007C0070000000006C
:10323000000000000000C07FC07F80010003000686
:10324000000C00180030C07FC07F000000000000AC
:103250008003800700060006000600060006000E38
:10326000001C001C000E00060006000600060006FA
:103270008007800300060006000600060006000620
:10328000000600060006000600060006000600060E
:1032900000060006000600060038003C000C000C8A
:1032A000000C000C000C000E00070007000E000CC4
:1032B000000C000C000C000C003C0038000000006A
:1032C000000000000000000000008038807F004700
:1032D00000000000000000000000000000000000EE
:1032E00000000000000000000000000000000000DE
:1032F00000000000000000000000000000000000CE
:1033000000000000000000000000000000000000BD
:1033100000000000E003E003E003E003E003E0035B
:10332000E003E003C003C003C001C001C001C0014D
:10333000C001000000000000E003E003E003000023
:1033400000000000000000003C1E3C1E3C1E3C1E15
:103350003C1E3C1E3C1E000000000000000000005F
:10336000000000000000000000000000000000005D
:10337000000000000000000000000000CE01CE03AD
:10338000DE039E039C039C07FF3FFF7F3807380F37
:10339000780F780F780EFFFFFFFFF01EF01CE01C87
:1033A000E03CE03DE03900000000000000000000CB
:1033B000FC03FE0FEE1FE01EE01EE01EE01EE01FFD
:1033C000E00FE007F003FC01FE01FE01FE01FE013B
:1033D000FE01FE01FE3DFC3FF00FE001E0010000B8
:1033E00000000000033E07F78FE78EE79EE3BCE393
:1033F000B8E7F8E7F0F7E03FC001FF03FF07F30786
:10340000F30FF31EF33CF338F3787FF03FE0000056
:103410000000000000000000E007F80F780F781FA0
:10342000781F781F780FF00FE00F801FC37FC3FB5A
:10343000E7F3F7F1F7F0FFF07FF03EF87F7CFF3F16
:10344000EF1F00000000000000000000E003E003A8
:10345000E003E003E003C003C0010000000000003F
:10346000000000000000000000000000000000005C
:10347000000000000000000000000000000000004C
:103480003F007C00F001E001C003C0078007800717
:10349000800F000F000F000F000F000F000F800FB4
:1034A00080078007C007C003E001F0017C003F00F7
:1034B0000F000000007E001FC007C003E001F00104
:1034C000F000F000F80078007800780078007800CC
:1034D0007800F800F000F000F001E001C003C00740
:1034E000001F007E00780000E003C003C001CE3959
:1034F000FF3F7F3F20037003F807780F3C1F38061B
:1035000000000000000000000000000000000000BB
:1035100000000000000000000000000000000000AB
:103520000000000000000000C001C001C001C00197
:10353000C001C001C001FFFFFFFFC001C001C00109
:10354000C001C001C0010000000000000000000038
:10355000000000000000000000000000000000006B
:10356000000000000000000000000000000000005B
:103570000000E003E003E003E003E001E001E0011C
:10358000C0018003000000000000000000000000F7
:1035900000000000000000000000FE3FFE3F0000B1
:1035A000000000000000000000000000000000001B
:1035B000000000000000000000000000000000000B
:1035C00000000000000000000000000000000000FB
:1035D00000000000000000000000E003E003E00342
:1035E000E003000000000000000000000F000F00DA
:1035F0001E001E003C003C0078007800F000F00047
:10360000E001E001C003C00380078007000F000F46
:10361000001E001E003C003C0078007800F0000016
:10362000F007F80F7C1F3E3E1E3C1F7C1F7C0F786E
:103630000F780F780F780F780F780F781F7C1F7C2A
:103640001E3C3E3E7C1FF80FF0070000000000000B
:1036500000000000F000F007F03FF03FF001F00143
:10366000F001F001F001F001F001F001F001F001D2
:10367000F001F001F001F001F001FF3FFF3F000019
:103680000000000000000000E00FF83F7C3C3C0020
:103690003E003E003E003C003C007C00F800F00193
:1036A000E003C0078007000F001E003E003CFE3F05
:1036B000FE3F00000000000000000000F00FF81FB7
:1036C0007C1C3E003E003E003C003C00F800F00F39
:1036D000F80F7C003E001E001E001E001E003E0073
:1036E0007C1CF81FE01F000000000000000000002C
:1036F0007800F800F800F801F803F807F807780FE9
:10370000781E781E783C78787878FFFFFFFF780085
:103710007800780078007800780000000000000051
:1037200000000000FC1FFC1FFC1F001E001E001EEE
:10373000001E001EE01FF81FFC007C003E003E0043
:103740001E003E003E003C007C1CF81FE01F0000F5
:103750000000000000000000FC01FE078E0F001FAB
:10376000001E003E003C003CF83DFC3F3E7F1F7EBB
:103770000F3C0F3C0F3C0F3C0F3E1F1E3E1FFC0F2B
:10378000F00300000000000000000000FF3FFF3FCA
:10379000FF3F0F001E001E003C0038007800F000C4
:1037A000F000E001E001C003C0038007800F800F3C
:1037B000000F001F001F00000000000000000000BC
:1037C000F807FC0F3E1F1E1E1E3E1E3E1E1E3C1F07
:1037D000F80FF007F80FFC1E3E3E1F3C1F7C0F7CCD
:1037E0000F7C1F3C3E3FFC1FF00700000000000064
:1037F00000000000F007F80F7C1E3E3C1E3C1F7CC2
:103800001F7C1F7C1F7C1F3C3F3EFF1FEF071F00DC
:103810001E001E003E003C00F838F03FE01F000094
:103820000000000000000000000000000000000098
:1038300000000000E003E003E003E00300000000FC
:1038400000000000000000000000E003E003E003CF
:10385000E003000000000000000000000000000085
:103860000000000000000000E003E003E003E003CC
:103870000000000000000000000000000000E00365
:10388000E003E003E003E001E001E001C0038003A6
:1038900000000000000000000000000003000F0016
:1038A0003F00FC00F003C00F003F00FE003FC00FD0
:1038B000F003FC003F000F000300000000000000C8
:1038C00000000000000000000000000000000000F8
:1038D0000000000000000000FFFFFFFF00000000EC
:1038E0000000FFFFFFFF00000000000000000000DC
:1038F00000000000000000000000000000000000C8
:103900000000000000E000F8007E801FE007F801E2
:103910007E001F007E00F801E007801F007E00F897
:1039200000E000000000000000000000F01FFC3F6D
:103930003E381F381F381E001E003C007800F00083
:10394000E001C003C003C007C00700000000000082
:10395000C007C007C0070000000000000000000012
:10396000F803FE0F1E1F0F3E7F3CFF78EF79C773F1
:10397000C7F38FF38FF38FF39FF39FF3FF73FF7BF7
:10398000F779003C1C1FFC0FF8030000000000004A
:1039900000000000000000000000E003E003F0076A
:1039A000F007F007780F780F7C0E3C1E3C1E3E3C63
:1039B000FE3FFF3F1F780F780FF007F007F0000081
:1039C0000000000000000000000000000000F83FC0
:1039D000FC3F3E3C1E3C1E3C1E3C3E3C7C3CF03FC3
:1039E000F83F7E3C1F3C1F3C0F3C0F3C1F3CFE3F02
:1039F000F83F000000000000000000000000000090
:103A00000000FF01FF07871F003E003C007C00789C
:103A10000078007800780078007C007C003E003F51
:103A2000831FFF07FF0100000000000000000000EE
:103A3000000000000000F07FFC7F7E781F781F7878
:103A40000F780F780F780F780F780F780F780F783E
:103A50001F781E787E78F87FE07F0000000000006D
:103A600000000000000000000000FF3FFF3F003E9C
:103A7000003E003E003E003E003EFE3FFE3F003E58
:103A8000003E003E003E003E003EFF3FFF3F000084
:103A90000000000000000000000000000000FF1F08
:103AA000FF1F001E001E001E001E001E001EFF1F26
:103AB000FF1F001E001E001E001E001E001E001E16
:103AC000001E0000000000000000000000000000D8
:103AD0000000FE03FF0F871F003E007C007C007883
:103AE00000F800F87FF87FF80F780F7C0F7C0F3E0E
:103AF0008F1FFF0FFE030000000000000000000009
:103B00000000000000001F7C1F7C1F7C1F7C1F7CAE
:103B10001F7C1F7C1F7CFF7FFF7F1F7C1F7C1F7C07
:103B20001F7C1F7C1F7C1F7C1F7C0000000000008E
:103B300000000000000000000000FF3FFF3FE00326
:103B4000E003E003E003E003E003E003E003E0035D
:103B5000E003E003E003E003E003FF3FFF3F00007A
:103B60000000000000000000000000000000FC1F3A
:103B7000FC1F7C007C007C007C007C007C007C00C6
:103B80007C007C007C007C0078007800F838F03FF6
:103B9000C03F000000000000000000000000000026
:103BA00000001F3C1E3C3C3C783CF03CE03DE03FCC
:103BB000C03F803FC03FE03FF03DF03C783C7C3C64
:103BC0003E3C1F3C0F3C00000000000000000000D5
:103BD000000000000000003E003E003E003E003EAF
:103BE000003E003E003E003E003E003E003E003EE5
:103BF000003E003E003EFF3FFF3F0000000000008F
:103C0000000000000000000000001FF81FFC1FFC67
:103C10003FFE3FFE3FFE7FFF77FF77FFF7F7E7F7B7
:103C2000E7F3E7F3C7F307F007F007F007F000004A
:103C300000000000000000000000000000000F7CF9
:103C40000F7C0F7E0F7F0F7F8F7F8F7FCF7FEF7B6C
:103C5000EF79FF79FF78FF787F783F783F781F789A
:103C60001F780000000000000000000000000000BD
:103C70000000F007FC1F3E3E1F7C0F780F780FF806
:103C80000FF80FF80FF80FF80FF80F780F781F7C68
:103C90003E3EFC1FF0070000000000000000000096
:103CA000000000000000FC3FFF3F1F3E0F3E0F3EA4
:103CB0000F3E0F3E1F3E3F3EFC3FF03F003E003EAA
:103CC000003E003E003E003E003E000000000000BE
:103CD00000000000000000000000F007FC1F3E3E56
:103CE0001F7C0F780F780FF80FF80FF80FF80FF808
:103CF0000FF80F780F781F7C3E3EFC1FF8077C0002
:103D00003F000F0003000000000000000000F03F33
:103D1000FC3F7E3C3E3C1E3C1E3C3E3C3C3CFC3C56
:103D2000F03FE03FF03DF83C7C3C3E3C1E3C1F3CFD
:103D30000F3C000000000000000000000000000038
:103D40000000FC07FE1F0E3E003C003C003C003E15
:103D5000C01FF80FFE037F001F000F000F001F2081
:103D60003E3CFC3FF01F000000000000000000008F
:103D7000000000000000FFFFFFFFE003E003E0039E
:103D8000E003E003E003E003E003E003E003E0031B
:103D9000E003E003E003E003E003000000000000B4
:103DA000000000000000000000000F7C0F7C0F7C72
:103DB0000F7C0F7C0F7C0F7C0F7C0F7C0F7C0F7CAB
:103DC0000F7C0F7C1E3C1E3C3E3EFC1FF00700009B
:103DD000000000000000000000000000000007F0EC
:103DE00007F007F80F780F7C1E3C1E3C1E3E3C1E61
:103DF0003C1F781F780FF80FF007F007F007E0037B
:103E0000E0030000000000000000000000000000CF
:103E1000000003E003F003F007F0E7F3E7F3E7F354
:103E2000E773F77BF77FFF7F7F7F7F7F7E7F7E3F1C
:103E30003E3E3E3E3E3E000000000000000000000E
:103E400000000000000007F80F7C1E3E3E3E3C1FB5
:103E5000F80FF007E007E003E003F007F80F7C0F2E
:103E60007C1E3E3C1F780F780FF000000000000021
:103E70000000000000000000000007F807780F7C39
:103E80001E3C1E3E3C1F780FF80FF007E003E003D6
:103E9000E003E003E003E003E003E003E0030000ED
:103EA0000000000000000000000000000000FF7F94
:103EB000FF7F0F001F003E007C00F800F000E001D3
:103EC000E003C007800F000F001E003E007CFF7F54
:103ED000FF7F00000000000000000000FF078007D7
:103EE000800780078007800780078007800780079A
:103EF000800780078007800780078007800780078A
:103F000080078007800780078007FF07FF07000002
:103F100000780078003C003C001E001E000F000FDF
:103F200080078007C003C003E001E001F000F0005B
:103F3000780078003C003C001E001E000F000F00BF
:103F400007000000F07FF000F000F000F000F0004B
:103F5000F000F000F000F000F000F000F000F000E1
:103F6000F000F000F000F000F000F000F000F000D1
:103F7000F000F07FF07F0000C000C001C001E0034E
:103F8000E003F007F0077807780F380F3C1E3C1E5F
:103F90001E3C1E3C0F380F78077800000000000020
:103FA0000000000000000000000000000000000011
:103FB0000000000000000000000000000000000001
:103FC00000000000000000000000000000000000F1
:103FD000000000000000FFFFFFFF000000000000E5
:103FE000F0000000000000000000000000000000E1
:103FF00000000000000000000000000000000000C1
:1040000000000000000000000000000000000000B0
:1040100000000000000000000000000000000000A0
:10402000F80FFC3F7C3C3E003E003E00FE07FE1FBA
:104030003E3E3E7C3E783E7C7E7CFF3FCF1F0000B4
:104040000000000000000000003C003C003C003C80
:10405000003C003CF83DFE3F3E3F1F3E0F3C0F3C06
:104060000F3C0F3C0F3C0F3C1F3C1E3C3E3FFC3FB7
:10407000F03B000000000000000000000000000015
:104080000000000000000000FE03FF0F871F003E3D
:10409000003E003C007C007C007C003C003E003E7A
:1040A000871FFF0FFE03000000000000000000005B
:1040B0001F001F001F001F001F001F00FF07FF1F22
:1040C0003F3E1F3C1F7C1F7C1F7C1F781F781F7C7E
:1040D0001F7C3F3C7F3EFF1FDF0F00000000000001
:1040E00000000000000000000000000000000000D0
:1040F000F803FC0F3E1F1E3E1F3C1F7CFF7FFF7F0F
:10410000007C007C003C003E071FFF0FFE03000008
:104110000000000000000000FF01E103C003C00731
:10412000C007C007FF7FFF7FC007C007C007C007E9
:10413000C007C007C007C007C007C007C007C00747
:10414000C0070000000000000000000000000000A8
:104150000000000000000000EF07FF1F7F3E1F3C33
:104160001F7C1F7C1F781F781F781F7C1F7C3F3CA3
:104170007F3EFF1FDF0F1E001E001E007C38F83F31
:10418000003C003C003C003C003C003CFC3DFE3F51
:104190009E3F1F3F1F3E1F3C1F3C1F3C1F3C1F3CC0
:1041A0001F3C1F3C1F3C1F3C1F3C00000000000048
:1041B00000000000F001F00100000000000000001D
:1041C000E07FE07FE001E001E001E001E001E001EB
:1041D000E001E001E001E001E001E001E0010000B8
:1041E0000000000000000000F800F80000000000DF
:1041F00000000000F83FF83FF800F800F800F80071
:10420000F800F800F800F800F800F800F800F800EE
:10421000F800F800F800F000F071E07F003C003C8E
:10422000003C003C003C003C1F3C3E3C7C3CF83CDD
:10423000F03DE03DC03FC03FE03FF03DF83C7C3CFE
:104240003E3C1F3C1F3C000000000000000000003E
:10425000F07FF001F001F001F001F001F001F00158
:10426000F001F001F001F001F001F001F001F001C6
:10427000F001F001F001F001F00100000000000089
:10428000000000000000000000000000000000002E
:104290009EF7FFFFFFFFFFFFE7FBE7F9C7F1C7F15D
:1042A000C7F1C7F1C7F1C7F1C7F1C7F1C7F1000006
:1042B00000000000000000000000000000000000FE
:1042C00000000000FC3DFE3F9E3F1F3F1F3E1F3C85
:1042D0001F3C1F3C1F3C1F3C1F3C1F3C1F3C1F3C06
:1042E0001F3C000000000000000000000000000073
:1042F0000000000000000000F007FC1F3E3E1F3CD5
:104300001F7C0F780F780F780F780F781F7C1F3C79
:104310003E3EFC1FF007000000000000000000000F
:10432000000000000000000000000000F83DFE3F1B
:104330003E3F1F3E0F3C0F3C0F3C0F3C0F3C0F3CE1
:104340001F3C1E3E3E3FFC3FF83F003C003C003C13
:10435000003C003C000000000000000000000000E5
:10436000EE07FE1F7E3E1E3C1E7C1E781E781E78C9
:104370001E781E781E7C3E7C7E3EFE1FDE0F1E00D9
:104380001E001E001E001E000000000000000000B5
:10439000000000007F1FFF1FE71FC71F871F001FB0
:1043A000001F001F001F001F001F001F001F001F15
:1043B000001F0000000000000000000000000000DE
:1043C0000000000000000000FC07FE1F0E1E003E63
:1043D000003E003FE01FFC07FE003E001E001E00E6
:1043E0003E3CFC3FF01F0000000000000000000009
:1043F000000000000000800780078007FF7FFF7F2C
:104400008007800780078007800780078007800774
:1044100080078007C007FF03FF01000000000000C5
:10442000000000000000000000000000000000008C
:104430001E3C1E3C1E3C1E3C1E3C1E3C1E3C1E3CAC
:104440001E3C1E3C3E3C7E3CFE3EFE1FDE0F00003E
:10445000000000000000000000000000000000005C
:104460000000000007F00F780F781E3C1E3C1E3E37
:104470003C1E3C1E780F780FF00FF007F007E003AA
:10448000E003000000000000000000000000000049
:10449000000000000000000003F0E3F1E3F3E7F3A5
:1044A000F7F3F7F3F77F777F7F7F7F7F7F7F3E3E56
:1044B0003E3E3E3E3E3E0000000000000000000088
:1044C0000000000000000000000000000F7C1E3E05
:1044D0003C3E3C1FF80FF007F007E003F007F80739
:1044E000F80F7C1E3E3E1F3C1F78000000000000BD
:1044F00000000000000000000000000000000000BC
:1045000007F80F780F7C1E3C1E3C3C1E3C1E3C1FD7
:10451000780FF80FF007F007E003E003C003C003D3
:10452000C0038007800F007F000000000000000033
:1045300000000000FF3FFF3F1F003E007C00F8002E
:10454000F001E003C007800F001F001E003CFF7F4A
:10455000FF7F00000000000000000000FE01E003FB
:10456000C003C003C003C003E001E001E001C001DB
:10457000C003803F803FC003C001E001E001E001D3
:10458000C003C003C003C003E003FE017E000000BF
:10459000C001C001C001C001C001C001C001C00113
:1045A000C001C001C001C001C001C001C001C00103
:1045B000C001C001C001C001C001C001C001C001F3
:1045C000C0010000C03FE003E001E001E001E001C4
:1045D000C001C003C003C001E001FE00FE00E00115
:1045E000C001C003C003C001E001E001E001E0013F
:1045F000E003C03F003F000000000000000000009A
:104600000000000000000000000000000000073F64
:10461000C77FE773FFF17EF000000000000000009C
:10462000000000000000000000000000000000008A
:104630000000000001020304060708095C460008A8
:104640000000002038000000C40100089446000863
:1046500038000020B8060000E0010008000000005B
:10466000A00080004080200000000000070A000039
:10467000181E00080B12000084250008101A000004
:10468000E0320008010000001000000000000000FF
:044690000024F4000E
:040000050800018965
:00000001FF
